:100000000C94AB000C94CC1A0C94A51A0C94D3004D
:100010000C94D3000C94D3000C94D3000C94D30014
:100020000C94D3000C94D3000C94D3000C94D30004
:100030000C94D3000C94D3000C94D3000C94D300F4
:100040000C945B1A0C94D3000C9444190C941E1954
:100050000C94D3000C94D3000C94D3000C94D300D4
:100060000C94D3000C94D300A6046F035A037D03B1
:10007000770373031603460307634236B79BD8A77B
:100080001A39685618AEBAAB558C1D3CB7CC5763BD
:10009000BD6DEDFD753EF6177231BF000000803F6B
:1000A00008000000BE922449123EABAAAA2ABECD87
:1000B000CCCC4C3E00000080BEABAAAAAA3E0000F9
:1000C0000000BF000000803F0000000000084178F1
:1000D000D3BB4387D1133D190E3CC3BD4282AD2B28
:1000E0003E68EC8276BED98FE1A93E4C80EFFFBE20
:1000F00001C4FF7F3F00000000000000000024005A
:1001000027002A0000000000230026002900040424
:1001100004040404040402020202020203030303AF
:10012000030301020408102040800102040810208B
:1001300001020408102000000000250028002B0008
:100140000000000800020100000304070000000096
:1001500000000000142111241FBECFEFD8E0DEBF45
:10016000CDBF13E0A0E0B1E0E8E5FDE402C00590FA
:100170000D92A03CB107D9F725E0A0ECB3E001C097
:100180001D92A830B207E1F710E0CBEAD0E004C03E
:100190002197FE010E945622CA3AD107C9F70E9450
:1001A000C3210C94AA260C9400008091E0038F5F79
:1001B0008093E00308958091D2039091D303019638
:1001C0009093D3038093D2030895813051F0E8F0E7
:1001D000823061F0833079F46FE672E183E89AE36C
:1001E00008956DEC7CEC8CEC9DE308956AE077ED6E
:1001F00083E29CE3089584500E94E50027E137EBF9
:1002000041ED58E30E94CA25089560E070E080E85F
:100210009FE30895CF93DF93EC0188819981DC01FE
:10022000ED91FC910190F081E02D09952A813B81AF
:10023000820F931F9B838A83DF91CF910895DF9272
:10024000EF92FF920F931F93CF93DF93EC01D62E83
:100250008E8187FD03C000E010E01FC0E12CF12C6F
:1002600000E010E09E81892F8F7092959770899F92
:10027000C0011124E816F90684F48C819D81DC010B
:10028000ED91FC910190F081E02D60E20995080F5D
:10029000191FBFEFEB1AFB0AE5CF8C819D81DC01B2
:1002A000ED91FC910190F081E02D6D2D0995AC014F
:1002B00021E0BAE0DB1220E09E8120FB97F99E83CB
:1002C000CA01800F911FDF91CF911F910F91FF9075
:1002D000EF90DF900895FC0194819F7D9B3591F410
:1002E0000580F681E02D3681932F9F709F3039F085
:1002F0009F5F292F2F70932F907F922B9683CF0192
:100300000C94081980E090E00895FF920F931F93DA
:10031000CF93DF938C01F62EDC0117968C91882306
:10032000B1F0B2E26B1305C0F80184818C3509F09D
:10033000A1C0D80115968D919C911697DC01ED9185
:10034000FC910190F081E02D6F2D09958BC0BBE5EC
:100350006B1751F1B617F0F0ECE26E1709F45FC0BD
:10036000FAE36F1709F444C082E268136AC081E0BF
:10037000D80117968C93C8010E946B01EC01F8011B
:1003800085819681DC01ED91FC910190F081E02D59
:1003900062E265C0ABE76A1739F0BDE76B1741F061
:1003A000EDE56E134EC004C0C8010E946B0119C078
:1003B000F80184818F7D8B3519F4C0E0D0E012C044
:1003C0000580F681E02D3681932F9F7039F0915F83
:1003D000292F2F70932F907F922B9683CF010E940D
:1003E0000819EC01D80115968D919C91169730C093
:1003F000F80185819681DC01ED91FC910190F081FD
:10040000E02D6AE30995EC01F80185819681DC0114
:10041000ED91FC910190F081E02D60E220C0F801A7
:1004200085819681DC01ED91FC910190F081E02DB8
:100430006CE20995EC01F801858196810E9408190A
:100440000FC0C8010E946B01EC01F8018581968103
:10045000DC01ED91FC910190F081E02D6F2D09956B
:100460008C0F9D1FF801F482DF91CF911F910F91A6
:10047000FF90089517825DCFCF93DF93EC018881C1
:1004800099810E9460182A813B81820F931F9B8370
:100490008A83DF91CF9108958F929F92AF92BF92FE
:1004A000EF92FF920F931F93CF93DF93CDB7DEB7F9
:1004B00066970FB6F894DEBF0FBECDBF7C011E8AD3
:1004C0008E010A5E1F4F8AE0882E912CA12CB12C40
:1004D000CB01BA01A50194010E948826942F852F93
:1004E000605DF80162938F01A901692F782F411592
:1004F00051056105710561F7BF01C7010E943C020A
:1005000066960FB6F894DEBF0FBECDBFDF91CF91D8
:100510001F910F91FF90EF90BF90AF909F908F90A1
:100520000895FF920F931F93CF93DF936115710589
:1005300049F463E072E0DF91CF911F910F91FF903A
:100540000C943C028B01EC0162E2CE010E940A0194
:10055000F80161918F01662351F0E4EFF1E0F08042
:10056000FF2099F39181961759F03296F8CF62E205
:10057000CE01DF91CF911F910F91FF900C940A0152
:100580006CE5CE010E940A016F2DDFCF0F931F9300
:10059000CF93DF938C01EB016BE7CE010E940A0140
:1005A000F8010281138101151105A9F0F80162819A
:1005B0007381CE010E9491026AE3CE010E940A017A
:1005C000BE01C80104960E94F802F8010081118161
:1005D0000115110541F46DE7CE01DF91CF911F9117
:1005E0000F910C940A016CE2CE010E940A01DBCF4C
:1005F0004F925F926F927F929F92AF92BF92CF92F3
:10060000DF92EF92FF920F931F93CF93DF938C01B2
:10061000EB01FC01A080B180F8E0AF16B10408F056
:100620007BC0F501EC5CFF4F0C945622FC0102816B
:1006300013816BE5CE010E940A01F801028113814A
:100640000115110559F0BE01C80102960E94F80279
:10065000F801008111810115110599F46DE5CE01B4
:10066000DF91CF911F910F91FF90EF90DF90CF908E
:10067000BF90AF909F907F906F905F904F900C9441
:100680000A016CE2CE010E940A01DACFFC018281EC
:100690009381DF91CF911F910F91FF90EF90DF90A9
:1006A000CF90BF90AF909F907F906F905F904F9052
:1006B0000C94C602FC0162817381CE01DF91CF915F
:1006C0001F910F91FF90EF90DF90CF90BF90AF9070
:1006D0009F907F906F905F904F900C949102FC01DF
:1006E0006281738157C06DE2CE010E940A01F80158
:1006F000428153816481758117C1FC01828193819C
:10070000A481B581892B8A2B8B2B19F46DE072E0C3
:1007100041C068E072E03EC088EF982E9A0CF80164
:10072000C280D380E480F580A7019601C701B6019D
:100730000E940C24882319F063E172E02BC020E0B2
:1007400030E0A901C701B6010E94642587FF08C0F7
:100750006DE2CE010E940A01F7FAF094F7F8F094E6
:1007600026013701E89477F82FEF3FEF4FE75FE777
:10077000C301B2010E940C2481111EC02FEF3FEF74
:100780004FE75FE7C301B2010E9464251816A4F485
:1007900067E172E0CE01DF91CF911F910F91FF9041
:1007A000EF90DF90CF90BF90AF909F907F906F9031
:1007B0005F904F900C943C0220E030E04AE754E414
:1007C000C701B6010E94712300E010E018160CF179
:1007D0002FE632E143E85AE3C701B6010E946425DF
:1007E00087FF37C016C020E030E040E85FE3C70174
:1007F000B6010E94642587FF15C00150110920E051
:1008000030E040E251E4C701B6010E94CA256B0105
:100810007C0120E030E0A901C701B6010E946425F7
:100820008111E1CF20E030E040E251E4C701B601A0
:100830000E94712318166CF40F5F1F4F20E030E008
:1008400040E251E4C701B6010E94C9226B017C015C
:10085000E9CF892D0E94E50020E030E040E05FE331
:100860000E94CA259B01AC01C701B6010E945D220E
:100870002B013C010E9442236B017C010E946925EF
:100880009B01AC01C301B2010E945C222B013C011F
:10089000B701A601CE010E944C02992021F06EE220
:1008A000CE010E940A01F8E0AF1619F120E030E015
:1008B00040E251E4C301B2010E94CA252B013C0170
:1008C0000E943B23F62E062E000C770B880B990B0B
:1008D0000E946B259B01AC01C301B2010E945C2206
:1008E0002B013C0160E36F0DCE010E940A01AA9426
:1008F000DACF17FF0EC060E272E0CE010E943C0228
:1009000044275527401B510B052E000C660B770B17
:100910000BC001151105D1F065E6CE010E940A0158
:10092000A801110F660B770BCE01DF91CF911F91BC
:100930000F91FF90EF90DF90CF90BF90AF909F907E
:100940007F906F905F904F900C944C02DF91CF910D
:100950001F910F91FF90EF90DF90CF90BF90AF90DD
:100960009F907F906F905F904F900895DB0110975C
:1009700049F0ED91FC9111970190F081E02DBC01BF
:10098000CD01099480E090E008954F925F926F92BC
:100990007F928F929F92AF92BF92EF92FF920F93AE
:1009A0001F93CF93DF93CDB7DEB7C452D2400FB6BB
:1009B000F894DEBF0FBECDBF82EB94E00E945516C7
:1009C00035EFE32E34E0F32E10E048EE442E43E002
:1009D000542E612C712C54E8A52E51E0B52E1C82AA
:1009E0001B824D825E826F827886BA82A9821D87C1
:1009F000D7012D913D917D018091B6049091B7046E
:100A000028173907E9F5CE0101960E94C8118731F0
:100A100011F08C31A9F5CE0101960E944C11892B61
:100A200079F18B819C81C550DE4F99838883CB5FA0
:100A3000D1408D819E81AF81B885C350DE4F8883C0
:100A40009983AA83BB83CD5FD14089859A85AB8585
:100A5000BC85CF5FDD4F88839983AA83BB83C15058
:100A6000D24084E891E0C750DE4F99838883C95F04
:100A7000D1408D85CB5FDD4F8883C550D24023C0E8
:100A80001F5F143009F0ABCFC550DE4F19821882BA
:100A9000CB5FD14088EE93E0A0E0B0E0C350DE4FE2
:100AA00088839983AA83BB83CD5FD14084E891E09A
:100AB000C750DE4F99838883C95FD140CB5FDD4F3C
:100AC0001883C550D240CB5FDD4F8881C550D240DE
:100AD000843009F4FEC411E0CE0187509E4F0E947D
:100AE000D011882309F42CC3CE0187509E4F0E9459
:100AF0004C11892B89F3CE0187509E4F0E943211F1
:100B00008A3019F4112339F304C08D3029F310E031
:100B1000E3CF84E291E09A838983C950DE4F198242
:100B20001882C75FD1408E010F5F1F4FB80184E06C
:100B300090E00E94B604009709F43EC3FC011183C3
:100B40000083138212827C010E94BA0D882309F46B
:100B50002CC38091A6048B3009F0FEC26091A004E2
:100B600070E080E090E00E9469254B015C0180E02C
:100B70000E94B10EC75EDD4F688379838A839B83B1
:100B8000C951D24081E00E94B10E2B013C01A50168
:100B90009401C501B4010E940C24811121C3C75ED8
:100BA000DD4F288139814A815B81C951D240CA0118
:100BB000B9010E940C24811113C3A3019201C30146
:100BC000B2010E940C2481110BC301E0A501940124
:100BD000C301B2010E94A10BC35EDD4F688379831C
:100BE0008A839B83CD51D24000E0A5019401C75E6A
:100BF000DD4F688179818A819B81C951D2400E94F1
:100C0000A10BCF5DDD4F688379838A839B83C152BB
:100C1000D24087E393E0A0E0AC016A2FC7010E94B5
:100C2000CD0AB501A4010E94912080E493E0A0E0E8
:100C3000AC016A2FC7010E94CD0AC75EDD4F488113
:100C400059816A817B81C951D2400E94912083E5FC
:100C500093E0A0E0AC016A2FC7010E94CD0AB30166
:100C6000A2010E94912089E693E0A0E0AC016A2FE6
:100C7000C7010E94CD0ACF5DDD4F488159816A814D
:100C80007B81C152D2400E94912085E793E0A0E091
:100C9000AC016A2FC7010E94CD0AC35EDD4F4881B7
:100CA00059816A817B81CD51D2400E94912080E0A0
:100CB0000E94FE194C0180E00E94FE19BC01990FB0
:100CC000880B990B0E946B259B01AC0160E070ECD6
:100CD0008FE794E40E94C92220E030E040EA50E42B
:100CE0000E94CA2520E030E040E85FE30E945C22D9
:100CF00020E030E040E251E40E94CA2529E739E6CD
:100D000040E952E40E94C9222EED37E341E350EC62
:100D10000E9476232B013C0180E00E94FE195C01B9
:100D200084E893E0A0E0AC016A2FC7010E94CD0ADD
:100D3000B5010E946A2085E993E0A0E0AC016A2F2A
:100D4000C7010E94CD0A5C01B401990C880B990B74
:100D50000E946B259B01AC0160E070EC8FE794E48E
:100D60000E94C92220E030E040EA50E40E94CA25F7
:100D700020E030E040E85FE30E945C2220E030E0C9
:100D800040E251E40E94CA2521E232E447EC5FE3ED
:100D90000E94CA25AB01BC01C5010E94912085EAD1
:100DA00093E0A0E0AC016A2FC7010E94CD0A8C013C
:100DB00022E434E349EE52E4C301B2010E94CA25A1
:100DC000AB01BC01C8010E94912081E00E94FE1984
:100DD0008C0123EB33E040E0642FA901C7010E949E
:100DE000CD0AB8010E946A206AE070E080E090E0DD
:100DF0000E94151AE7E2F1E06491E3E1F1E0E49189
:100E0000F0E0EE0FFF1FEC5FFE4F8591949100E440
:100E100012E42FE030E0462F0E94CF2061157105CB
:100E20008105910509F451C3DC01CB010196A11D97
:100E3000B11D4C015D01FFE0BF2262E370E080E084
:100E400090E00E94151A83E292E0A0E0AC016A2FC4
:100E5000C7010E94CD0A0E944720009761F024E05C
:100E600030E0DC0113963C932E931297FC018482B0
:100E70009582A682B7820E944F1A0091E1031091D9
:100E8000E2032091E3033091E403DC01CB01801BFA
:100E9000910BA20BB30B893E9340A105B10508F05D
:100EA000A8C18091D4039091D50301969093D50366
:100EB0008093D40360E672E085EF93E00E946018AF
:100EC0001092CC031092CD031092CE031092CF0358
:100ED0001092D3031092D2038BED90E090930B010C
:100EE00080930A0180916900837F84608093690008
:100EF000E99A0E944F1A4B015C01F0E18F0EF7E274
:100F00009F1EA11CB11C0E944F1A681579058A0505
:100F10009B05C8F3E9988DE598E190930B018093C8
:100F20000A0164E772E085EF93E00E940C196FE715
:100F300072E085EF93E00E9460184091D2035091D7
:100F4000D30360E070E02AE085EF93E00E9475181B
:100F500069E872E085EF93E00E9460188091D20307
:100F60009091D30366E170E00E9442222CE3269F19
:100F7000C001279F900D11246AE070E00E94422278
:100F80007093D1036093D003AB0160E070E02AE07E
:100F900085EF93E00E94751861E972E085EF93E0B8
:100FA0000E9460186091D0037091D10380E090E0BE
:100FB0000E94692522ED33E54BEF53E40E94CA25D8
:100FC00020E030E040E752E40E94C92220E030E017
:100FD0004AE754E40E94C9224B015C012B013C0109
:100FE0006093CC037093CD038093CE039093CF0393
:100FF0009B01AC010E940C24882309F4B7C160EA6C
:1010000072E085EF93E00E9460186CEA72E085EF71
:1010100093E00E94601885EF93E00E94081968E849
:1010200073E180E090E00E94151A83EB92E0A0E06B
:10103000AC016A2FC7010E94CD0A6091D203709162
:10104000D3030E94B6208BEB92E0A0E0AC016A2FA4
:10105000C7010E94CD0A6091D0037091D1030E9414
:10106000B6208FEB92E0A0E0AC016A2FC7010E948E
:10107000CD0A4091CC035091CD036091CE03709185
:10108000CF030E94912089EC92E0A0E0AC016A2F8E
:10109000C7010E94CD0A6091D4037091D5030E94CC
:1010A000B6205E0197E0A91A9EEFB90A66ED72E0DC
:1010B000C5010E940C1966EE72E0C5010E940C1970
:1010C00065E073E0C5010E940C19C5010E94081972
:1010D000DE01A25FBD4F13961C921E92129784E10F
:1010E00091E011969C938E931596BC92AE921497B4
:1010F00016968C91169780788062806816968C93ED
:101100001697FE01EA5FFD4F138212828CE191E097
:1011100091838083B683A58314821782CB5EDD4FD3
:10112000F983E883C551D240C95EDD4F1982188228
:10113000C751D240BE016B5E7D4FC7010E94C602FF
:1011400061E070E080E090E00E94151ACE018750C7
:101150009E4F0E946012BDC18B3038F185518230A4
:1011600020F56091A00470E080E090E00E94692585
:1011700020E030E040E853E40E94CA254B015C01C6
:101180008091A104682F70E080E090E00E946B25C0
:101190009B01AC01C501B4010E945D222DEC3CEC29
:1011A0004CEC5DE30E94CA25E0CC812C912C90ECA4
:1011B000A92E9FE7B92EDBCC8091C40381110BC00F
:1011C0001092C1031092C0031092C3031092C20385
:1011D00081E08093C40320ECE22E23E0F22EB4CC15
:1011E00067E173E085EF93E00E940C19E12CF12C8C
:1011F00058CFE8988DE598E1909309018093080114
:101200000E944F1A1091E0038090E1039090E20356
:10121000A090E303B090E403681979098A099B0957
:101220000E9469259B01AC0160E070E08AE794E4CC
:101230000E94C9224B015C01612F70E080E090E0C8
:101240000E946B259B01AC01C501B4010E94CA2517
:1012500020E030E040E950E40E94C9224B015C01EB
:101260006093DC037093DD038093DE039093DF03D0
:101270000E944F1A6093E1037093E2038093E303AB
:101280009093E40320E030E040E752E4C501B4016C
:101290000E94C92220E030E04AE754E40E94CA25B7
:1012A0000E9442237093DB036093DA030091D6031C
:1012B0001091D7032091D8033091D903D901C801E7
:1012C000860F971FA11DB11D8093D6039093D7035E
:1012D000A093D803B093D9038DE292E0A0E0AC01D3
:1012E0006A2FC7010E94CD0A4091DC035091DD03B3
:1012F0006091DE037091DF030E94912086E392E00B
:10130000A0E0AC016A2FC7010E94CD0A6091DA0308
:101310007091DB030E94B6208BE492E0A0E0AC0168
:101320006A2FC7010E94CD0A8090D6039090D70300
:10133000A090D803B090D9030E944720009761F095
:1013400024E030E0DC0113963C932E931297FC01CD
:1013500084829582A682B7821092E00342E050E038
:1013600065ED70E080E00E94F31A9BCDD501C401C9
:10137000BF77C75EDD4F88839983AA83BB83C9513A
:10138000D2402FEF3FEF4FE75FE7BC01CD010E9456
:101390000C24811113C02FEF3FEF4FE75FE7C75ECB
:1013A000DD4F688179818A819B81C951D2400E9439
:1013B000642518161CF464EA72E023CE2FEF3FEF89
:1013C0004FE75FE4C501B4010E94712318161CF4B5
:1013D00068EA72E016CE2FEF3FEF4FE75FECC501F2
:1013E000B4010E94642587FDF3CF20E030E0A9011D
:1013F000C501B4010E94642587FF11C0E091F50387
:10140000F091F6030190F081E02D6DE285EF93E01D
:1014100009952401350177FA709477F870942AE0E1
:1014200037ED43EA5BE3C301B2010E945D222B0169
:101430003C010E9442234B015C010E9469259B01F3
:10144000AC01C301B2010E945C222B013C012AE0E5
:10145000B501A40185EF93E00E9475186DE772E075
:1014600085EF93E00E94601820E030E040E251E414
:10147000C301B2010E94CA252B013C010E944223F4
:101480004B01A12CB12C2AE0B501A40185EF93E01A
:101490000E947518C501B4010E9469259B01AC0129
:1014A000C301B2010E945C2220E030E040E251E43E
:1014B0000E94CA250E944223AB0160E070E02AE04E
:1014C00085EF93E00E947518A0CD812C912C5401DA
:1014D000B4CCCC5DDD4F0FB6F894DEBF0FBECDBFF0
:1014E000DF91CF911F910F91FF90EF90BF90AF9040
:1014F0009F908F907F906F905F904F9008958F9204
:101500009F92AF92BF92CF92DF92EF92FF92CF93D2
:10151000DF93A091A704882311F03A2F01C030E097
:101520008091A80490E0880F991F8C5F9E4FC09017
:10153000AD04D090AE04E090AF04F090B00440E071
:1015400050E0BA01FC01C591D49128812A232313CC
:101550000FC04A015B012FEF821A920AA20AB20A57
:101560004C155D056E057F0538F4B501A401EACF81
:10157000342F252FCB0104C030E020E080E090E044
:10158000632F722FDF91CF91FF90EF90DF90CF907C
:10159000BF90AF909F908F9008954F925F926F92FF
:1015A0007F928F929F92AF92BF92CF92DF92EF92F3
:1015B000FF920F931F93CF93DF936C012A01662E46
:1015C000DC01CD91DC91209781F48091C3048111DD
:1015D0007EC01092C0041092BF041092C2041092F8
:1015E000C10481E08093C30472C0BE0184E090E036
:1015F0000E94B604009739F0FC01D183C0831382A6
:1016000012828C0111C08091C30481110BC0109211
:10161000C0041092BF041092C2041092C10481E071
:101620008093C3040FEB14E0D8018D919C91892B1A
:1016300019F4A12CB12C05C0902E812E86E0A82E85
:10164000B12C762C7201F601C281D381209709F466
:1016500041C0B7018A819B810E945B25892B89F15A
:101660000990D881C02DF2CFD183C083209769F132
:10167000772009F452C0D6018D919C91E114F104B8
:1016800009F448C0F70101900020E9F731977F0184
:10169000E418F508BFEFEB1AFB0ADC01ED91FC91B1
:1016A0000190F081E02DB70109956C01009791F14F
:1016B000A701B2010E945225C6019B838A83892B10
:1016C00021F0BD82AC829E828F82C80129C08FEB3F
:1016D00094E026C0F601608171818AE090E00E946A
:1016E000B604EC01892B21F0198218821D821C821C
:1016F000D6011296ED91FC911397309739F08081C5
:101700009181009709F4B0CFFC01F9CFF601D383A2
:10171000C283ACCF80E090E0D0CF5B824A82D1CF51
:10172000DF91CF911F910F91FF90EF90DF90CF90BD
:10173000BF90AF909F908F907F906F905F904F90F1
:1017400008954F925F926F927F928F929F92AF9285
:10175000BF92CF92DF92EF92FF920F93CF93DF93DE
:10176000CDB7DEB728970FB6F894DEBF0FBECDBF5A
:101770006B017C0149015A0101110EC026E636E6D3
:1017800046EE5FE30E94CA2520E030E040E052E4EC
:101790000E945D226B017C0120E030E044E752E4CE
:1017A000C701B6010E945D222B013C0120E030E020
:1017B00048E852E4C701B6010E945C222AE939E9EF
:1017C00049E95FE30E94CA259B01AC01C301B20154
:1017D0000E945D222B013C0122E133E840EC5DE3F5
:1017E000C501B4010E94CA259B01AC01C301B2012D
:1017F0000E945D2220E030E040E05FE30E94CA25C5
:101800002B013C0120E030E04EE952E40E947123BC
:1018100018160CF075C1A7019601C701B6010E9408
:10182000CA252B013C01A5019401C501B4010E9408
:10183000CA256D837E838F83988721E133E243E05D
:1018400050E4C701B6010E94CA2529E134E849E203
:1018500052E40E945C2269837A838B839C8326E115
:101860003BE442E251E4C501B4010E94CA259B0158
:10187000AC0169817A818B819C810E945D226983A0
:101880007A838B839C8328E436E246E65EEBC701CD
:10189000B6010E94CA25A50194010E94CA259B0198
:1018A000AC0169817A818B819C810E945D22698370
:1018B0007A838B839C8320EE3FE040EE5BEBC30199
:1018C000B2010E94CA259B01AC0169817A818B819A
:1018D0009C810E945D2269837A838B839C8328EF9D
:1018E00037E840E65DEB6D817E818F8198850E94AF
:1018F000CA259B01AC0169817A818B819C810E9400
:101900005D2269837A838B839C832CEA3DE041EAE4
:101910005AE3C301B2010E94CA25A50194010E94A5
:10192000CA259B01AC0169817A818B819C810E94CF
:101930005D2269837A838B839C8328EC3FE84FE5A3
:101940005AE3C701B6010E94CA252D813E814F810D
:1019500058850E94CA259B01AC0169817A818B81DF
:101960009C810E945D2269837A838B839C8321EF13
:101970003BE845E056EBC301B2010E94CA252D8128
:101980003E814F8158850E94CA259B01AC01698127
:101990007A818B819C810E945D222B013C0120E099
:1019A00030E040E551E4C501B4010E94642587FFA1
:1019B0005CC020E030E040EA52E4C701B6010E947A
:1019C000712387FD52C020E030E040EE52E4C701B1
:1019D000B6010E94642518160CF4A6C0A501940156
:1019E00060E070E080E591E40E945C2220E030E05D
:1019F00040E85EE30E94CA254B015C0120E030E034
:101A00004EEB52E4C701B6010E945C226B017C01DF
:101A100020E030E0A9010E94712318164CF4A701C0
:101A2000960160E070E088E891E40E945C2208C0C2
:101A300020E030E048E851E4C701B6010E945D2291
:101A40002EE33DEE40E75DE30E94CA250E94CC23D1
:101A50009B01AC01C501B4010E94CA259B01AC01E8
:101A6000B201C3010E945C2249C020E030E04AEA92
:101A700052E4C501B4010E94712318160CF040C055
:101A800020E030E040EA52E4C701B6010E94712331
:101A900087FD36C020E030E04EEA52E4C701B601CF
:101AA0000E946425181664F120E030E04AEA52E40E
:101AB000C501B4010E945C222DEC3CEC4CEC5DE3D2
:101AC0000E94CA254B015C01A701960160E070E00D
:101AD0008EEA92E40E945C222DEC3CEC4CE45EE346
:101AE0000E94CA259B01AC01C501B4010E94CA2510
:101AF0009B01AC01B201C3010E945D222B013C019C
:101B000001110FC020E030E040E052E4B201C30117
:101B10000E945C2226E838E34EE05FE30E94CA257B
:101B20000FC0B201C3010CC020E030E04AEA52E429
:101B3000C501B4010E94712318160CF4ABCFE0CF9D
:101B40006B017C01C701B60128960FB6F894DEBF81
:101B50000FBECDBFDF91CF910F91FF90EF90DF903F
:101B6000CF90BF90AF909F908F907F906F905F903D
:101B70004F900895CF92DF92EF92FF920F931F93B1
:101B8000CF93DF93CDB7DEB7C054D1400FB6F894F2
:101B9000DEBF0FBECDBF0E944F1A0091A904109165
:101BA000AA042091AB043091AC046B017C01C01AF3
:101BB000D10AE20AF30A40EDC41647E0D406E10474
:101BC000F10418F48091B104BCC06093A90470932F
:101BD000AA048093AB049093AC041092A4041092D6
:101BE000A3041092A2041092A1041092A00461E038
:101BF0008091A5040E9476196AEF70E080E090E081
:101C00000E94151A61E08091A5040E94C21960E04B
:101C10008091A5040E94761964E170E080E090E074
:101C20000E94151AF89461E08091A5040E9476192B
:101C30008BE990E00197F1F762E08091A5040E94A2
:101C4000C21983E290E00197F1F780E00E947F0AD9
:101C5000672B682B692B21F41092B10478943EC055
:101C600081E00E947F0A672B682B692BA9F38E0104
:101C70000F5F1F4F6E018FEBC81A8EEFD80A7801E5
:101C800080E00E947F0AF7016083718382839383DF
:101C900081E00E947F0AF7016483758386839783BE
:101CA000F8E0EF0EF11CEC14FD0451F7789420E0FD
:101CB00030E0F8014081518162817381C480D58018
:101CC000E680F780411551056105710529F0C114C1
:101CD000D104E104F10421F41092B10480E031C098
:101CE000F90183E0F595E7958A95E1F7E056FB4F1A
:101CF0008081880F4C155D056E057F0508F48160B5
:101D000080832F5F3F4F085F1F4F2832310589F6D0
:101D10002091A40430E04091A0048091A10490E0BF
:101D2000840F911D4091A204840F911D4091A30442
:101D3000840F911D99272817390771F681E0809348
:101D4000B104C05CDE4F0FB6F894DEBF0FBECDBF4E
:101D5000DF91CF911F910F91FF90EF90DF90CF9087
:101D60000895CF92DF92EF92FF92CF93DF93C82F27
:101D70000E94BA0D882309F448C09091A6049B30B4
:101D800031F008F442C09551923048F03EC0609165
:101D9000A20470E080E090E00E94692527C0D09105
:101DA000A2046D2F6F7770E080E090E00E946B25B9
:101DB00020E030E040E853E40E94CA256B017C013A
:101DC0004091A304642F70E080E090E00E946B25B6
:101DD0009B01AC01C701B6010E945D222DEC3CECD9
:101DE0004CEC5DE30E94CA25D7FD9058CC2389F0C6
:101DF00026E636E646EE5FE30E94CA2520E030E0A4
:101E000040E052E40E945D2204C060E070E080EC9B
:101E10009FE7DF91CF91FF90EF90DF90CF900895F3
:101E2000CF93C82F462F61E070E00E949C1561E0BF
:101E300070E08C2F0E94A6158111F9CFCF910895E3
:101E4000CF92DF92EF92FF920F931F93CF93DF9386
:101E5000CDB7DEB7C254D1090FB6F894DEBF0FBEBE
:101E6000CDBFFC0182819381A481B58123968CAF83
:101E70009DAFAEAFBFAF239721E023962FAF23973F
:101E800023964CAD5DAD6EAD7FAD23974BAB5CAB98
:101E90006DAB7EAB89AF9AAFABAFBCAF8DA79EA742
:101EA000AFA7B8AB28AB4DA55EA56FA578A94FA38A
:101EB00058A769A77AA72EAB4BA95CA96DA97EA9E3
:101EC00049A35AA36BA37CA38B8F9C8FAD8FBE8F2E
:101ED0004CE551E05C8B4B8B3FEF3D8B3E8B3F8B5A
:101EE000188E5E874D872AA7CFA0D8A4E9A4FAA4AC
:101EF000CF86D88AE98AFA8A2CA309A11AA12BA134
:101F00003CA109871A872B873C875A8349838B8397
:101F10009C83AD83BE836CE271E080E090E00E9420
:101F2000151A1FB7F8948091BE04811127C0E8E10B
:101F3000F1E08491ECE2F1E09491E82FF0E0EE0F13
:101F4000FF1FE650FF4FA591B491EC91E92321F4D6
:101F500061E08AE00E94761961E08AE00E94C2197D
:101F60008CB580618CBD8CB580648CBD61E08DE0EA
:101F70000E94C21961E08BE00E94C2198091BE04E8
:101F80008F5F8093BE041FBF229A80E590E00E947D
:101F9000C91D60E880E090E00E94DE1B65E58BE1F2
:101FA00090E00E94DE1B65E58AE190E00E94DE1B66
:101FB0000E94F41180E090E49093E6038093E5039F
:101FC00080E090E69093EE038093ED0380E098E448
:101FD0009093E8038093E70380E098E69093F00302
:101FE0008093EF0380E090E59093EA038093E90308
:101FF00080E090E79093F2038093F10380E098E50E
:102000009093EC038093EB0380E098E79093F403C4
:102010008093F30380E590E00E94C91D46E050E004
:1020200060E071E089E090E00E94AF1B44E050E086
:10203000BE016D5F7F4F8FE090E00E94AF1B44E0D8
:1020400050E0BE01615F7F4F81E090E00E94AF1BD6
:1020500044E050E0BE016B5E7F4F85E090E00E945F
:10206000AF1B0E94F41181E08C8789859A85AB852E
:10207000BC858093940490939504A0939604B093A8
:102080009704CE5BDF4F0FB6F894DEBF0FBECDBF17
:10209000DF91CF911F910F91FF90EF90DF90CF9044
:1020A00008959F92AF92BF92CF92DF92EF92FF92EC
:1020B0000F931F93CF93DF93982E8B015A016901E1
:1020C00064E270E00E94A615E82EF12C65E270E053
:1020D000892D0E94A615FE2CEE24E82AE701C00FE8
:1020E000D11F9E013770E92CF12CC701880F991F71
:1020F000AC014B515C4F7A01FA0180819181820FD2
:10210000931FA9014C0D5D1D4130584090F000E037
:1021100018E0021B130BA801B5010E94AF1BA6011A
:10212000401B510BB501600F711FF7018081918138
:1021300002C0A601B5010E94AF1BCC0DDD1D4D2FC5
:1021400064E270E0892D0E949C154C2F65E270E0DE
:10215000892DDF91CF911F910F91FF90EF90DF902C
:10216000CF90BF90AF909F900C949C15FF920F93CF
:102170001F93CF93DF93F82EC0E0D0E08F2D0E9405
:10218000181C8C01892B21F08F2D0E94181CEC014A
:10219000C017D10799F7CE01DF91CF911F910F9111
:1021A000FF900895FC019485FB018485981303C07A
:1021B00081E0943009F480E0089521E0FC018485F9
:1021C000843009F420E0822F08950895CF93DF939F
:1021D0001F92CDB7DEB76983DC01ED91FC910280DF
:1021E000F381E02D41E050E0BE016F5F7F4F099524
:1021F0000F90DF91CF910895DC01ED91FC91048C5B
:10220000F58DE02D099591E089270895862F089591
:1022100081E0862708950F931F93CF93DF931F923A
:10222000CDB7DEB78C01DC01ED91FC910480F58126
:10223000E02D0995892B51F0BE016F5F7F4FF801AA
:1022400084850E94381C898190E002C08FEF9FEF47
:102250000F90DF91CF911F910F910895FC0184851C
:102260000C94791CCF93DF931F92CDB7DEB741E07A
:1022700050E0BE016F5F7F4FFC0184850E94791C96
:10228000181619061CF4898190E002C08FEF9FEFA9
:102290000F90DF91CF910895FC018485843011F077
:1022A0000C94571C80E090E00895CF92DF92EF925B
:1022B000FF920F931F93CF93DF93CDB7DEB7AF9706
:1022C0000FB6F894DEBF0FBECDBF7C016A010CE5EE
:1022D00011E01A8309831C861B8688EE93E0A0E038
:1022E000B0E08D879E87AF87B88B8CEC91E09A87A2
:1022F0008987188F0F8B198E1A8E1B8E1C8E84E087
:1023000089A31DA30CA31EA21FA218A619A6809123
:10231000940490919504A0919604B09197048CA791
:102320009DA7AEA7BFA78B839C83AD83BE83188672
:102330001F82AE014C5D5F4FCE0101960E94CC1D05
:1023400081309105B1F4D701ED91FC910484F585BC
:10235000E02D1BA70AA78EA19FA1A8A5B9A58CA7B0
:102360009DA7AEA7BFA7A601BE01665D7F4FC701AF
:102370000995AF960FB6F894DEBF0FBECDBFDF91C3
:10238000CF911F910F91FF90EF90DF90CF90089524
:10239000FC018485843011F00C949B1D80E008952D
:1023A000CF93DF93FC0124852430D1F0EC010E940F
:1023B000C811843181F0882371F0883161F08C314B
:1023C00061F4E881F9810480F581E02DCE01099561
:1023D00021E0892B19F420E001C021E0822F01C007
:1023E00080E0DF91CF91089508958F929F92AF92F0
:1023F000BF92CF92DF92EF92FF920F931F93CF93F2
:10240000DF93CDB7DEB72D970FB6F894DEBF0FBEC2
:10241000CDBF7C0100E010E038EE832E33E0932E38
:10242000A12CB12C44E8C42E41E0D42E1C821B8286
:102430008D829E82AF82B886DA82C9820D87CE01F4
:1024400001960E94C811811123C0F7014481558172
:1024500020E061E0802F0E94E01C80E590E00E9477
:10246000C91D63E070E0802F0E94A615833129F416
:1024700062E070E0802F0E94100FF7018481958147
:10248000000F111FF801EB50FB4F9183808305C0B3
:102490000F5F1F4F0430110549F62D960FB6F894C3
:1024A000DEBF0FBECDBFDF91CF911F910F91FF9087
:1024B000EF90DF90CF90BF90AF909F908F90089556
:1024C000CF92DF92EF92FF921F93CF93DF93FC01A5
:1024D0001485143099F1EC0180E590E00E94C91D4B
:1024E00068E070E0812F0E94100F0E944F1A6B016C
:1024F0007C01CE010E94C8118823B1F061E070E038
:1025000080E090E00E94151A0E944F1ADC01CB0176
:102510008C199D09AE09BF09883E9340A105B105FC
:1025200040F38C850E94CC1CEC85F0E0EE0FFF1F81
:10253000EB50FB4F1182108284E08C87DF91CF91AA
:102540001F91FF90EF90DF90CF9008958F929F9210
:10255000AF92BF92CF92DF92EF92FF920F931F93B1
:10256000CF936C015B017A01FC01C485C43041F456
:1025700081E090E0F6019383828380E090E04EC09A
:102580008A014130584010F000E018E080E590E00A
:102590000E94C91D8C2F0E94B6104C0163E070E0B0
:1025A0008C2F0E94A615873111F08C3121F48016F2
:1025B000910660F302C000E010E080E590E00E9428
:1025C000C91D9801A50160E070E08C2F0E94511098
:1025D00060E270E08C2F0E94100F62E070E08C2FA0
:1025E0000E94A61584FD10C063E070E08C2F0E944D
:1025F000A615811104C08C2F0E94CC1CB9CF80E598
:1026000090E00E94C91DE9CF40E162E070E08C2FAC
:102610000E949C15012B09F4ABCFC701CF911F91EC
:102620000F91FF90EF90DF90CF90BF90AF909F9071
:102630008F900895CF92DF92FF920F931F93CF93C5
:10264000DF93FC012485243009F077C06A01EB0197
:102650008C01F12C8F2D0E949B1D811103C0F8016C
:10266000F48607C08B7F8831D1F3F394F4E0FF1236
:10267000F1CFF8018485843009F45FC02091060110
:10268000309107012F5F3F4F11F420E030EC309381
:10269000070120930601409106015091070120E0B7
:1026A00061E00E94E01CF801F4848A818F3F51F4BC
:1026B0008B818F3F91F48C818F3F79F48D818F3F97
:1026C00061F438C0811109C08B81811106C08C81F1
:1026D000811103C08D81882369F1C114D10451F1A6
:1026E00080E590E00E94C91DBE016E5F7F4F8F2D77
:1026F00090E0982F882744E050E0845F9B4F0E9431
:10270000AF1BB6018F2D0E94041664E070E08F2D80
:102710000E94100FC8010E94C811873189F061E042
:1027200070E080E090E00E94151AC8010E94C81174
:102730008111F0CF84E0F801848780E090E002C04E
:1027400081E090E0DF91CF911F910F91FF90DF909A
:10275000CF900895CF93DF931F92CDB7DEB76983F3
:10276000DC01ED91FC910280F381E02D41E050E02D
:10277000BE016F5F7F4F09950F90DF91CF91089554
:10278000FC01818D928D0895FC01848995890895BD
:102790002CE531E0FC0131832083FB014089518924
:1027A00062897389FC01428353836483758308952E
:1027B000DC01ED91FC91008CF18DE02D0994CF931B
:1027C000DF931F92CDB7DEB76983DC01ED91FC91F9
:1027D0000280F381E02D41E050E0BE016F5F7F4F4A
:1027E00009950F90DF91CF910895CF93DF931F92BA
:1027F000CDB7DEB7FC01218D328D232B49F0BE0110
:102800006F5F7F4F808D0E94381C898190E002C0ED
:102810008FEF9FEF0F90DF91CF910895CF93DF93CC
:10282000FC01218D328D2115310519F48FEF9FEFB9
:1028300011C0EC014217530708F0A901888D0E94CE
:10284000791C1816190694F7298D3A8D281B390B17
:102850003A8F298FDF91CF9108950F931F93CF93D4
:10286000DF931F92CDB7DEB7FC01218D328D232B74
:1028700061F08C0141E050E0BE016F5F7F4F808DC1
:102880000E94791C181619061CF08FEF9FEF08C0E4
:10289000F801818D928D0197928F818F898190E0CF
:1028A0000F90DF91CF911F910F9108950F931F9378
:1028B000CF93DF93CDB7DEB728970FB6F894DEBF7E
:1028C0000FBECDBF8C01F801818D928D892B49F00F
:1028D000D801ED91FC910680F781E02DC8010995A2
:1028E000F2CF808D0E94571C181619065CF548E03F
:1028F00050E0BE016F5F7F4FD80158968C910E94C7
:10290000791C9C0118161906DCF489819A81AB8127
:10291000BC81F801808B918BA28BB38B8D8190E071
:10292000982F88272E81820F911D958B848B2F8164
:1029300030E0322F22278885280F311D328F218FDA
:10294000C90102C080E090E028960FB6F894DEBF7F
:102950000FBECDBFDF91CF911F910F910895AF9220
:10296000BF92CF92DF92FF920F931F93CF93DF938B
:102970008C015B01EA01FC01C688D788F08C80E5F8
:1029800090E00E94C91D8F2D0E94B6108C179D07E4
:1029900020F48F2D0E94B610EC019E01A501B60116
:1029A0008F2D0E9451100E94F411F8018689978999
:1029B0008C0F9D1F978B868BCE01DF91CF911F913E
:1029C0000F91FF90DF90CF90BF90AF900895CF927E
:1029D000DF92EF92FF920F931F93CF93DF93CDB7C8
:1029E000DEB7AF970FB6F894DEBF0FBECDBF7C0148
:1029F0006A010CE511E01A8309831C861B8688EEA8
:102A000093E0A0E0B0E08D879E87AF87B88B8CEC19
:102A100091E09A878987188F0F8B198E1A8E1B8EDB
:102A20001C8E84E089A31DA30CA31EA21FA218A6BE
:102A300019A68091940490919504A0919604B09168
:102A400097048CA79DA7AEA7BFA78B839C83AD835C
:102A5000BE8318861F82AE014C5D5F4FCE0101968A
:102A60000E94CC1D81309105B1F4D701ED91FC910C
:102A70000088F189E02D1BA70AA78EA19FA1A8A518
:102A8000B9A58CA79DA7AEA7BFA7A601BE01665D8D
:102A90007F4FC7010995AF960FB6F894DEBF0FBE02
:102AA000CDBFDF91CF911F910F91FF90EF90DF90FD
:102AB000CF900895CF93DF93EC01888D843061F03F
:102AC0000E94CC1CE88DF0E0EE0FFF1FEB50FB4F97
:102AD0001182108284E0888FDF91CF910895EF9268
:102AE000FF921F93CF93DF93FC01208D243011F0D0
:102AF00080E01CC07B01EC0110E0812F0E949B1D37
:102B0000811102C0188F05C08831E1F31F5F1430B6
:102B1000A1F7888D843061F3FD86EC861A8E198EBC
:102B200020E0A70162E00E94E01C81E0DF91CF91EC
:102B30001F91FF90EF9008959B0190E00496982FCD
:102B40008827642F820F931F0C94DE1B0F931F9313
:102B5000CF93DF931F92CDB7DEB790E00496982F06
:102B600088278C01060F171F0E94151B8FE00E94FB
:102B7000311C812F0E94311C802F0E94311C80E06B
:102B80000E94311C89830E94131B89810F90DF9161
:102B9000CF911F910F910895CF93FC01C08D80E5D7
:102BA00090E00E94C91D60E270E08C2F0E94100F1F
:102BB00062E070E08C2F0E94A61584FD19C062E0CF
:102BC00070E08C2F0E94A61583FF0BC048E162E0E5
:102BD00070E08C2F0E949C150E94F41180E090E020
:102BE00011C00E94F41180E590E00E94C91DE0CF61
:102BF00040E162E070E08C2F0E949C150E94F4116D
:102C000081E090E0CF910895CF93DF93C82FD62F26
:102C1000472F60E170E00E949C154D2F61E170E04C
:102C20008C2FDF91CF910C949C15FF920F931F93E3
:102C3000CF93DF93FB01DC0157961C921E925697AF
:102C40005896FC908281811109C08381811106C050
:102C50008481811103C085818823F9F041155105D4
:102C6000E1F08A01EF0180E590E00E94C91DBE01FC
:102C70006E5F7F4F2F2D30E0922F882744E050E089
:102C8000845F9B4F0E94AF1BB8018F2D0E940416DA
:102C90000E94F41181E090E002C080E090E0DF91BA
:102CA000CF911F910F91FF9008954F925F926F9275
:102CB0007F928F929F92AF92BF92CF92DF92EF92CC
:102CC000FF921F93CF93DF93CDB7DEB72D970FB64B
:102CD000F894DEBF0FBECDBF7C0195EFA92E94E026
:102CE000B92E10E0C12CD12C28EE422E23E0522E1A
:102CF000612C712C34E8832E31E0932E1C821B82D0
:102D00004D825E826F8278869A8289821D87D50184
:102D10002D913D915D01F701848195812817390737
:102D2000B1F4CE0101960E94C811843169F0CE0140
:102D300001960E94C8118C3151F4CE0101960E9477
:102D40004C11892B91F003C0CC24C394D12C1F5F6C
:102D50001430A1F6CD2871F4D701ED91FC910480D7
:102D6000F581E02DC701099505C0CE0101960E94AD
:102D70006012EDCF2D960FB6F894DEBF0FBECDBF1B
:102D8000DF91CF911F91FF90EF90DF90CF90BF9098
:102D9000AF909F908F907F906F905F904F9008952D
:102DA0002F923F924F925F926F927F928F929F925B
:102DB000AF92BF92CF92DF92EF92FF920F931F9349
:102DC000CF93DF93CDB7DEB72E970FB6F894DEBF63
:102DD0000FBECDBF7C016B015A010E94551605EF55
:102DE00014E020E0612C712C88EE282E83E0382E30
:102DF000412C512C94E8892E91E0992E1C821B8243
:102E00002D823E824F8258869A8289822D87F801D0
:102E1000419151918F01F70184819581481759079C
:102E200041F4CE0101962E870E94C8112E8587316C
:102E3000E9F02F5F243011F7C3012E960FB6F894F6
:102E4000DEBF0FBECDBFDF91CF911F910F91FF90DD
:102E5000EF90DF90CF90BF90AF909F908F907F903A
:102E60006F905F904F903F902F900895A501B6010D
:102E7000CE0101962E870E94A612680E791E2E851D
:102E8000D8CFFC01918D828D981761F0828DDF0182
:102E9000A80FB11D5D968C91928D9F5F9F73928F4D
:102EA00090E008958FEF9FEF0895FC01918D828D42
:102EB000981731F0828DE80FF11D858D90E008950F
:102EC0008FEF9FEF0895FC01918D228D892F90E067
:102ED000805C9F4F821B91098F7399270895FC0195
:102EE000848DDF01A80FB11DA35ABF4F2C91848D93
:102EF00090E001968F739927848FA689B7892C93C8
:102F0000A089B1898C9180648C93938D848D981362
:102F100006C00288F389E02D80818F7D808308952B
:102F2000EF92FF920F931F93CF93DF93EC0181E019
:102F3000888F9B8D8C8D981305C0E889F9898081D5
:102F400085FD24C0F62E0B8D10E00F5F1F4F0F7311
:102F50001127E02E8C8DE8120CC00FB607FCFACFBB
:102F6000E889F989808185FFF5CFCE010E946F172E
:102F7000F1CF8B8DFE01E80FF11DE35AFF4FF08278
:102F80000B8FEA89FB898081806207C0EE89FF8907
:102F90006083E889F98980818064808381E090E0A2
:102FA000DF91CF911F910F91FF90EF900895CF93F4
:102FB000DF93EC01888D8823C9F0EA89FB89808141
:102FC00085FD05C0A889B9898C9186FD0FC00FB613
:102FD00007FCF5CF808185FFF2CFA889B9898C9154
:102FE00085FFEDCFCE010E946F17E7CFDF91CF9124
:102FF000089585EF93E00E94631721E0892B09F47F
:1030000020E0822F089580E090E0892B29F00E9433
:10301000F91781110C9400000895CF92DF92EF927E
:10302000FF920F931F93CF93DF936C017A018B0173
:10303000C0E0D0E0CE15DF0589F0D8016D918D019B
:10304000D601ED91FC910190F081E02DC60109952A
:10305000892B11F47E0102C02196ECCFC701DF91CC
:10306000CF911F910F91FF90EF90DF90CF90089537
:103070003FB7F8948091020590910305A091040553
:10308000B091050526B5A89B05C02F3F19F0019604
:10309000A11DB11D3FBFBA2FA92F982F8827820FDE
:1030A000911DA11DB11DBC01CD0142E0660F771F2E
:1030B000881F991F4A95D1F7089508950E944D25BC
:1030C0006115710579F0FB0101900020E9F7319756
:1030D000AF01461B570BDC01ED91FC910280F3819F
:1030E000E02D099480E090E008954F925F926F92F6
:1030F0007F92EF92FF920F931F93CF93DF93CDB701
:10310000DEB7A1970FB6F894DEBF0FBECDBF7C012E
:10311000FA01CB0119A2223008F42AE08E010F5DDA
:103120001F4F422E512C612C712CBF01A301920123
:103130000E948826F901CA01015011096A3014F46D
:10314000605D01C0695CD8016C93232B242B252B77
:1031500061F7B801C7010E946018A1960FB6F894F4
:10316000DEBF0FBECDBFDF91CF911F910F91FF90BA
:10317000EF907F906F905F904F9008958F929F9205
:10318000AF92BF92CF92DF92EF92FF920F931F9375
:10319000CF93DF937C01EB016C0182E0C80ED11C60
:1031A0004701E5E08E0E911C00E010E0F601419130
:1031B0006F0150E060E070E02AE0CE010E947518D7
:1031C0005C01E881F9810190F081E02D6EE2CE0191
:1031D00009958A0D9B1D080F191FC814D90431F7D2
:1031E000F701458150E060E070E02AE0CE010E94E6
:1031F0007518800F911FDF91CF911F910F91FF9054
:10320000EF90DF90CF90BF90AF909F908F900895F8
:103210006DEB73E00C9460180F931F93CF93DF93C3
:10322000EC010E9460188C01CE010E940819800FE9
:10323000911FDF91CF911F910F9108951F920F92CF
:103240000FB60F9211242F933F934F935F936F9379
:103250007F938F939F93AF93BF93EF93FF9385EFEC
:1032600093E00E946F17FF91EF91BF91AF919F91F3
:103270008F917F916F915F914F913F912F910F901F
:103280000FBE0F901F9018951F920F920FB60F92BE
:1032900011242F938F939F93EF93FF93E091050455
:1032A000F09106048081E0910B04F0910C0482FD02
:1032B00012C0908180910E048F5F8F7320910F0454
:1032C000821751F0E0910E04F0E0EB50FC4F958F27
:1032D00080930E0401C08081FF91EF919F918F91A7
:1032E0002F910F900FBE0F901F90189590E0FC014A
:1032F000E05CFE4F3491FC01EE5DFE4F2491FC0139
:10330000E25FFE4FE491EE2309F43BC0332339F131
:10331000333091F038F43130A9F0323001F584B512
:103320008F7D12C0373091F03830A1F03430B9F4CD
:10333000809180008F7D03C0809180008F77809383
:1033400080000DC084B58F7784BD09C08091B00026
:103350008F7703C08091B0008F7D8093B000F0E044
:10336000EE0FFF1FEA5CFE4FA591B4918FB7F89462
:10337000EC91611103C020952E2301C02E2B2C93BC
:103380008FBF0895CF93DF9390E0FC01EE5DFE4F79
:103390002491FC01E25FFE4F8491882361F190E06B
:1033A000880F991FFC01E650FF4FC591D491FC0195
:1033B000EA5CFE4FA591B491611109C09FB7F894E2
:1033C0008881209582238883EC912E230BC0623064
:1033D00061F49FB7F8943881822F80958323888386
:1033E000EC912E2B2C939FBF06C08FB7F894E881E9
:1033F0002E2B28838FBFDF91CF9108958E3008F058
:103400008E508770806480937C0080917A00806405
:1034100080937A0080917A0086FDFCCF80917800BD
:103420002091790090E0922B08958F929F92AF9215
:10343000BF92CF92DF92EF92FF926B017C010E94CC
:1034400038184B015C01C114D104E104F104F1F01E
:103450000E943818DC01CB0188199909AA09BB0917
:10346000883E9340A105B10570F321E0C21AD1084E
:10347000E108F10888EE880E83E0981EA11CB11CBB
:10348000C114D104E104F10419F7DDCFFF90EF90EE
:10349000DF90CF90BF90AF909F908F9008952FB7FF
:1034A000F8946091FE047091FF0480910005909162
:1034B00001052FBF08951F920F920FB60F9211248E
:1034C0002F933F938F939F93AF93BF938091FE046D
:1034D0009091FF04A0910005B09101053091FD0489
:1034E00023E0230F2D3720F40196A11DB11D05C047
:1034F00026E8230F0296A11DB11D2093FD048093A1
:10350000FE049093FF04A0930005B0930105809101
:10351000020590910305A0910405B091050501965F
:10352000A11DB11D8093020590930305A09304058E
:10353000B0930505BF91AF919F918F913F912F91CE
:103540000F900FBE0F901F9018951F920F920FB6FD
:103550000F9211242F933F934F935F936F937F9319
:103560008F939F93AF93BF93EF93FF93E0910A01E3
:10357000F0910B010995FF91EF91BF91AF919F9150
:103580008F917F916F915F914F913F912F910F900C
:103590000FBE0F901F9018951F920F920FB60F92AB
:1035A00011242F933F934F935F936F937F938F9348
:1035B0009F93AF93BF93EF93FF93E0910801F09136
:1035C00009010995FF91EF91BF91AF919F918F9163
:1035D0007F916F915F914F913F912F910F900FBE0F
:1035E0000F901F9018958230E8F4E82FF0E0EE0F6E
:1035F000FF1FE85FFE4F71836083813041F080914F
:1036000069008C7F482B40936900E89A0895809167
:103610006900440F551F440F551F837F482B40936B
:103620006900E99A08952A9A08952A980895CF92F0
:10363000DF92EF92FF920F931F93CF93DF93EC01F2
:103640007A018B016C01C40ED51ECC15DD05A9F0E5
:103650000E94151B8FE00E94311C8D2F0E94311C8F
:103660008C2F0E94311C219680E00E94311CF801B1
:1036700081938F010E94131BE8CFC701DF91CF9187
:103680001F910F91FF90EF90DF90CF9008958F9250
:103690009F92AF92BF92CF92DF92EF92FF920F93E1
:1036A0001F93CF93DF93B82E4B018A01A22E68E2BD
:1036B00070E00E94A615C82FD0E069E270E08B2D63
:1036C0000E94A615DC2FCC27C82B9E013770CB2C6F
:1036D000D12CC601880F991FAC0143515C4F6A0180
:1036E000FA0180819181820F931FA801420F531F1D
:1036F0004130584098F060E078E07B01E21AF30A2C
:10370000A701B4010E94171BA8014E195F09B4015B
:103710006E0D7F1DF6018081918102C0A801B40168
:103720000E94171BA1100EC0C00FD11F4D2F68E2C1
:1037300070E08B2D0E949C154C2F69E270E08B2D60
:103740000E949C15DF91CF911F910F91FF90EF90F8
:10375000DF90CF90BF90AF909F908F900895CF92C1
:10376000DF92EF92FF920F931F93CF93DF93EC01C1
:103770007A018B016C01C40ED51ECC15DD05A1F0BC
:103780000E94151B80EF0E94311C8D2F0E94311C5E
:103790008C2F0E94311C2196F80181918F010E948B
:1037A000311C0E94131BE9CFC701DF91CF911F91FC
:1037B0000F91FF90EF90DF90CF9008951F93CF93DC
:1037C000DF9300D0CDB7DEB7182F6A8399830E94AC
:1037D000151B80EF0E94311C9981892F0E94311C9A
:1037E000812F0E94311C6A81862F0E94311C0E9409
:1037F000131B81E00F900F90DF91CF911F910895DF
:103800001F93CF93DF93182F66E270E00E94A615F6
:10381000C82FD0E067E270E0812F0E94A615DC2F50
:10382000CC279E01282BC901DF91CF911F910895CC
:103830001F93CF93DF93182F60E270E00E94A615CC
:10384000C82FD0E061E270E0812F0E94A615DC2F26
:10385000CC279E01282BC901DF91CF911F9108959C
:1038600008958EBD00000DB407FEFDCF8EB50895FE
:103870001F93CF93DF9300D0CDB7DEB7182F80E52D
:1038800090E069837A830E94C91D21E041E050E005
:1038900069817A81812F0E94471B0E94F41181E087
:1038A00090E00F900F90DF91CF911F910895FF92BC
:1038B0000F931F93CF93DF93F82E80E590E00E9443
:1038C000C91DC0E0D0E08F2D0E94001C8C01892B07
:1038D00021F08F2D0E94001CEC01C017D10799F731
:1038E0000E94F411CE01DF91CF911F910F91FF90B3
:1038F0000895AF92BF92CF92DF92EF92FF921F9303
:10390000CF93DF93182F5B017A0180E590E00E944E
:10391000C91DC0E0D0E0812F0E94001C6C01892BE2
:1039200021F0812F0E94001CEC01CC15DD0599F7D8
:10393000209799F463E070E0812F0E94A6158431EE
:10394000F1F08823E1F0C1E0D0E08C3111F4C0E067
:10395000D0E0D195C195D10912C0EC16FD060CF44A
:10396000E7011C161D065CF420E0AE01B501812FB5
:103970000E94471B60E470E0812F0E94100F0E949C
:10398000F411CE01DF91CF911F91FF90EF90DF9066
:10399000CF90BF90AF900895CF93C82F80E590E06F
:1039A0000E94C91D60E170E08C2F0E94100F4FEF44
:1039B00062E070E08C2F0E949C15CF910C94F41162
:1039C000FF920F931F93CF93DF9300D0CDB7DEB755
:1039D000F82E8A012A8369830E94CC1C80E590E03E
:1039E0000E94C91D2A816981462F422B60E070E048
:1039F0008F2D0E949C150115110551F400910605AB
:103A0000109107050F5F1F4F1093070500930605E0
:103A1000412F64E070E08F2D0E949C15402F65E0DF
:103A200070E08F2D0E949C1561E070E08F2D0E9448
:103A3000100F0E94F41181E00F900F90DF91CF9151
:103A40001F910F91FF900895BF92CF92DF92EF9256
:103A5000FF920F931F93CF93DF9300D000D000D03D
:103A6000CDB7DEB7FC01208D243009F053C06A01C8
:103A70007B018C01B12C63E070E08B2D0E94A615B8
:103A8000811103C0F801B08E06C08831D9F3B39418
:103A9000F4E0BF12F0CFF801808D8430D9F196E0C8
:103AA000EEEEF1E0DE01119601900D929A95E1F7AC
:103AB000F70193819F779C8394819D8395819E8359
:103AC000B7016E5F7F4F90E0982F882744E050E069
:103AD000845F9B4F0E94AF1BB601F801808D0E944E
:103AE0000416F801808D90E0982F882746E050E07A
:103AF000BE016F5F7F4F8A5F9B4F0E94AF1BF80133
:103B0000128E118E20E8A60162E0808D0E94E01CDA
:103B100081E001C080E026960FB6F894DEBF0FBEAC
:103B2000CDBFDF91CF911F910F91FF90EF90DF906C
:103B3000CF90BF9008951F93CF93DF931F92CDB77F
:103B4000DEB7182F80E590E00E94C91D63E070E0A9
:103B5000812F0E94A61589830E94F41189810F90FC
:103B6000DF91CF911F910895FC01EA50FE4F208113
:103B70003181620F731F653F41E0740738F42E5F97
:103B80003F4F71836083820F931F089580E090E020
:103B900008958CBD9DBD08952F923F924F925F92E4
:103BA0006F927F928F929F92AF92BF92CF92DF924D
:103BB000EF92FF920F931F93CF93DF93CDB7DEB7B2
:103BC00065970FB6F894DEBF0FBECDBF7C016B01C9
:103BD0003A01FB0120E080E090E06AE0319133237C
:103BE00009F140ED430F4A3080F4689FA001699FBE
:103BF000500D1124CA01C097830F911D37FD9A956E
:103C00008F3F910559F350F313C03E3289F42330AE
:103C100079F0D301A20FB11D12968C932F5F80E033
:103C200090E0DCCF233021F4F301858381E021C0D3
:103C3000F701428153816481758180919C04909148
:103C40009D04A0919E04B0919F04481759076A07EC
:103C50007B0709F49EC10E944F1A8701085F1F4F1E
:103C60006F7077277C5FC8010E946F15813019F053
:103C700080E090E0F3C18CE591E09A838983F701BD
:103C800082819381A481B5818B839C83AD83BE8324
:103C900045E350E0BE016F5F7F4FC8010E941516DB
:103CA000892B19F4C12CD12C6FC10E944F1AF70136
:103CB000778366837627672776277A83698342E04E
:103CC00050E0BE016F5F7F4FC8010E94AF1481E0DA
:103CD00090E09E878D8742E050E0BE01635F7F4F9A
:103CE000C8010E94AF1480E091E09E878D8742E07A
:103CF00050E0BE01635F7F4FC8010E94AF141E8673
:103D00001D8642E050E0BE01635F7F4FC8010E9404
:103D1000AF1442E050E0BE01635F7F4FC8010E94D4
:103D2000AF1442E050E0BE01635F7F4FC8010E94C4
:103D3000AF145601F5018081882311F1F6015F016E
:103D40008191811115C045018C189D081814190422
:103D500094F48F8641E050E0BE01615F7F4FC8015F
:103D60000E94AF14A401B601C8010E94AF1403C0A1
:103D70008E3229F7E8CF6501FFEFCF1ADF0ADACFDD
:103D80001F8641E050E0BE01615F7F4FC8010E9485
:103D9000AF14C12CDD24D394DE86CD8642E050E002
:103DA000BE01635F7F4FC8010E94AF14DE86CD86DF
:103DB00042E050E0BE01635F7F4FC8010E94AF1434
:103DC000C8010E94CC15892B09F46CCF63E0A62EA4
:103DD000B12CF2E06F0E711C0E944F1A1B012C01D6
:103DE000C8010E94561418161906A4F00E944F1A12
:103DF000DC01CB0182199309A409B50989389341E3
:103E0000A105B105D0F462E370E080E090E00E948B
:103E1000151AE6CFF7014281538164817581808D47
:103E2000918DA28DB38D481759076A077B0741F41E
:103E3000848D958DC59721F406C02FEF3FEF9AC072
:103E40002EEF3FEF97C0F70181A192A10C970CF4E0
:103E5000A6C04CE050E0BE016F5F7F4FC8010E94DA
:103E60000E148B8190E0982F88272C81822B9A8BBF
:103E7000898B298130E0322F22274A81242BF701B8
:103E8000468157814217530709F086C097FF84C0C7
:103E90008F709270892B09F0DEC0CF80D12CDC2C82
:103EA000CC248885C82AC114D10409F4D1C0812C3E
:103EB000912C8D8190E0982F88272E81822B881657
:103EC000990608F46FC0812C912C41E050E0BE01AE
:103ED0006D5E7F4FC8010E940E148B89982F907CD5
:103EE00009F093C0811186C08B898111EECF42E029
:103EF00050E0BE01615F7F4FC8010E940E1442E096
:103F000050E0BE01635F7F4FC8010E940E14C801DC
:103F10000E942D14C8010E942D14C8010E942D1466
:103F2000C8010E942D1442E050E0BE016F5E7F4F39
:103F3000C8010E940E148F8598898115914009F05F
:103F400069C02D853E853227232732272130310550
:103F500009F060C089899A898115944009F075C07B
:103F600044E050E0B301C8012C8B3D8B0E940E143D
:103F70002C893D896901F1E0AF1AB10829F02FEFD2
:103F8000C216D20609F428CFC8010E945A15C601EC
:103F900065C08EEF9FEF62C02CEF3FEFEBCF2DEFB0
:103FA0003FEFE8CF41E050E0BE01635F7F4FC801C3
:103FB0000E940E148D85811113C08D858111F2CF61
:103FC000C8010E942D14C8010E942D14C8010E942E
:103FD0002D14C8010E942D14FFEF8F1A9F0A69CF7C
:103FE0008D859FEF980F9D87882339F3C8010E9424
:103FF0002D14F6CF8B899FEF980F9B8B882309F4A4
:1040000073CFC8010E942D14F5CFC8010E942D1452
:104010001B8A6ACF412C512C89899A899827892734
:1040200098274816590638F4C8010E942D148FEFBE
:10403000481A580AF1CFEFEF8E1A9E0A8C149D048D
:1040400009F043CF26EF3FEF95CF27EF3FEF92CF19
:104050002AEF3FEF8FCF2BEF3FEF8CCF65960FB658
:10406000F894DEBF0FBECDBFDF91CF911F910F91AE
:10407000FF90EF90DF90CF90BF90AF909F908F9088
:104080007F906F905F904F903F902F900895CF93C7
:10409000DF93EC016881798188E090E00E94B604AA
:1040A000009729F0FC011182108213821282EA81AA
:1040B000FB81309751F0208131812115310511F0BC
:1040C000F901F9CF9183808302C09B838A83DF91BA
:1040D000CF910895CF93DF93EB010E944720009783
:1040E000E1F0D7FD07C0AE01DD0F660B770B24E0D2
:1040F00030E00AC0442755274C1B5D0B052E000CF1
:10410000660B770B25E030E0FC0133832283448388
:1041100055836683778381E001C080E0DF91CF9192
:104120000895CF93DF9300D000D0CDB7DEB7498399
:104130005A836B837C830E94472049815A816B811B
:104140007C81009759F02AE030E0FC013383228320
:10415000448355836683778381E001C080E00F90BC
:104160000F900F900F90DF91CF910895CF93DF9331
:10417000EB010E944720009771F024E030E0FC0141
:1041800033832283AE0160E070E04483558366830D
:10419000778381E001C080E0DF91CF910895CF92D5
:1041A000DF92EF92FF920F931F93E82FF92F05C034
:1041B000015011092109310961F190819623941769
:1041C000B9F305C0015011092109310911F190819C
:1041D00096239413F7CFC12CD12CE12CF12C0AC0DB
:1041E0008FEFC81AD80AE80AF80A0C151D052E0523
:1041F0003F0579F080818623841791F36C2D7D2D06
:104200008E2D9F2D1F910F91FF90EF90DF90CF90FB
:10421000089560E070E080E090E01F910F91FF90C2
:10422000EF90DF90CF900895EBECF4E08CE591E017
:10423000918380831282138214821582E5EFF3E06A
:104240001382128248EE53E060E070E044835583AD
:10425000668377832AE231E03183208325EC30E0E6
:104260003587248724EC30E03787268720EC30E040
:10427000318B208B21EC30E0338B228B22EC30E031
:10428000358B248B26EC30E0378B268B118E128EEB
:10429000138E148EE1EDF4E09183808312821382F9
:1042A00014821582E7EDF4E09183808312821382F9
:1042B00014821582EDEDF4E09183808312821382E3
:1042C00014821582E3EEF4E09183808312821382DC
:1042D00014821582E2E9F4E09183808312821382D2
:1042E00014821582EAE9F4E09183808312821382BA
:1042F00014821582E9EEF4E09183808312821382A6
:1043000014821582EFEEF4E091838083128213828F
:1043100014821582E8EBF4E0918380838AE0828343
:104320008EE783838BE084838FEC8583E2EBF4E07C
:10433000138212828AE491E09183808380E590E089
:1043400095838483A0EAB4E084E015968C93159756
:1043500086E116968C931697E6E2F1E0E4911796C3
:10436000EC931797E2E1F1E0E4911896EC9318973B
:1043700040E85EE360E070E01D964D935D936D93C1
:104380007C9350970895CF93DF9300D000D000D056
:10439000CDB7DEB7789484B5826084BD84B5816082
:1043A00084BD85B5826085BD85B5816085BD809100
:1043B0006E00816080936E00109281008091810078
:1043C0008260809381008091810081608093810070
:1043D000809180008160809380008091B100846032
:1043E0008093B1008091B00081608093B000809193
:1043F0007A00846080937A0080917A008260809352
:104400007A0080917A00816080937A0080917A00AE
:10441000806880937A001092C10062E08091A504C8
:104420000E94C21980E398EFAFEFBFEF8093A90419
:104430009093AA04A093AB04B093AC0442E050E084
:1044400065ED70E080E00E94F31A8CE591E09A83BC
:1044500089838091BA049091BB04A091BC04B0916F
:10446000BD048B839C83AD83BE83CE0101960E94E5
:10447000200F82EB94E00E94F5110E94C5040E9477
:104480000318FBCFAA1BBB1B51E107C0AA1FBB1F10
:10449000A617B70710F0A61BB70B881F991F5A95D0
:1044A000A9F780959095BC01CD010895EE0FFF1FEF
:1044B0000590F491E02D09945058BB27AA270E943B
:1044C00074220C944E260E94402638F00E94472603
:1044D00020F039F49F3F19F426F40C943D260EF495
:1044E000E095E7FB0C943726E92F0E945F2658F3EE
:1044F000BA17620773078407950720F079F4A6F5C9
:104500000C9481260EF4E0950B2EBA2FA02D0B01F2
:10451000B90190010C01CA01A0011124FF27591B08
:1045200099F0593F50F4503E68F11A16F040A22F0E
:10453000232F342F4427585FF3CF4695379527957F
:10454000A795F0405395C9F77EF41F16BA0B620B7E
:10455000730B840BBAF09150A1F0FF0FBB1F661FC5
:10456000771F881FC2F70EC0BA0F621F731F841F08
:1045700048F4879577956795B795F7959E3F08F02E
:10458000B0CF9395880F08F09927EE0F97958795F0
:1045900008950E94DD220C944E260E94472658F072
:1045A0000E94402640F029F45F3F29F00C94372602
:1045B00051110C9482260C943D260E945F2668F3CC
:1045C0009923B1F3552391F3951B550BBB27AA27CC
:1045D00062177307840738F09F5F5F4F220F331F06
:1045E000441FAA1FA9F335D00E2E3AF0E0E832D0CE
:1045F00091505040E695001CCAF72BD0FE2F29D0D1
:10460000660F771F881FBB1F261737074807AB07A2
:10461000B0E809F0BB0B802DBF01FF2793585F4F17
:104620003AF09E3F510578F00C9437260C94822680
:104630005F3FE4F3983ED4F3869577956795B795F9
:10464000F7959F5FC9F7880F911D9695879597F904
:104650000895E1E0660F771F881FBB1F621773077D
:104660008407BA0720F0621B730B840BBA0BEE1F92
:1046700088F7E09508950E9442236894B1110C9444
:10468000822608950E94672688F09F5798F0B92FD8
:104690009927B751B0F0E1F0660F771F881F991F77
:1046A0001AF0BA95C9F714C0B13091F00E94812672
:1046B000B1E008950C948126672F782F8827B85F82
:1046C00039F0B93FCCF3869577956795B395D9F7CF
:1046D0003EF490958095709561957F4F8F4F9F4FD9
:1046E00008950E94A62508F48FEF0895FA01EE0FB1
:1046F000FF1F309621053105A1F16115710561F4A7
:104700008038BFE39B0749F168949038810561F0D8
:104710008038BFEF9B0741F099234AF5FF3FE10541
:104720003105210519F1E8940894E795D901AA23E8
:1047300029F4AB2FBE2FF85FD0F310C0FF5F70F4E9
:10474000A695E0F7F73950F019F0FF3A38F49F7763
:104750009F930DD00F9007FC9058089546F00C944D
:104760003D2660E070E080E89FE308954FE79F7783
:104770005F934F933F932F930E94D1242F913F91AA
:104780004F915F910E94CA250C94192419F416F4D4
:104790000C943D260C944B240E946726B8F3992371
:1047A000C9F3B6F39F57550B87FF0E945924002485
:1047B000A0E640EA900180585695979528F4805CD1
:1047C000660F771F881F20F026173707480730F439
:1047D000621B730B840B202931294A2BA695179451
:1047E0000794202531254A2758F7660F771F881F21
:1047F00020F026173707480730F4620B730B840B41
:10480000200D311D411DA09581F7B901842F9158CC
:10481000880F9695879508950E94A625880B990B79
:10482000089529F416F00C9437260C9481260C94E4
:104830003D260E946726A8F39638A0F707F80F9246
:10484000E8942BE33AEA48EB5FE70E94E0250F92F9
:104850000F920F924DB75EB70F920E941925E8E7AD
:10486000F0E00E9460244F915F91EF91FF91E595F8
:10487000EE1FFF1F49F0FE57E0684427EE0F441F6C
:10488000FA95E1F74195550B0E9493240F9007FE8E
:104890000C94872408959F3F31F0915020F4879520
:1048A00077956795B795880F911D9695879597F998
:1048B000089591505040660F771F881FD2F70895D2
:1048C000DF93CF931F930F93FF92EF92DF927B01C1
:1048D0008C01689406C0DA2EEF010E94DD25FE01EE
:1048E000E894A5912591359145915591A6F3EF0155
:1048F0000E947422FE019701A801DA9469F7DF9003
:10490000EF90FF900F911F91CF91DF9108959B0140
:10491000AC0160E070E080E89FE30C94C9220C9445
:1049200037260C944B240E946726D8F39923C9F3A9
:10493000940F511DA3F39150504094F059F08823E7
:1049400032F0660F771F881F91505040C1F79E3F8D
:1049500051052CF7880F911D9695879597F9089525
:104960005F3FACF0983E9CF0BB27869577956795A6
:10497000B79508F4B1609395C1F7BB0F58F711F4E0
:1049800060FFE8CF6F5F7F4F8F4F9F4FE3CF0C9457
:10499000822616F00C944B240C943D2668940C94BB
:1049A00037260E946726A8F39923C1F3AEF3DF935D
:1049B000CF931F930F93FF92C92FDD2788232AF0EF
:1049C0002197660F771F881FDAF720E030E040E874
:1049D0005FEB9FE3883920F0803E38F021968F7797
:1049E0000E945D22E0EAF0E004C00E945D22EDEC4E
:1049F000F0E00E9460248B01BE01EC01FB2E6F579A
:104A000071097595771F880B990B0E946B2528E11A
:104A100032E741E35FE30E94DD25AF2D9801AE014F
:104A2000FF900F911F91CF91DF910E9474220C94FF
:104A30004E26FA01DC01AA0FBB1F9B01AC01BF5738
:104A400028F4222733274427507820C0B75190F408
:104A5000AB2F0024469537952795011CA395D2F3DB
:104A6000002071F0220F331F441FB395DAF30ED0EC
:104A70000C945C2261307105A0E88A07B94630F4D5
:104A80009B01AC016627772788279078309621F024
:104A90002083318342835383089581E090E0F8942A
:104AA0000C94AA26FB01DC0102C001900D9241503A
:104AB0005040D8F70895FB01DC018D9101908019D9
:104AC0000110D9F3990B08950E94A62508F481E0FE
:104AD0000895E89409C097FB3EF4909580957095F1
:104AE00061957F4F8F4F9F4F9923A9F0F92F96E93A
:104AF000BB279395F695879577956795B795F111AF
:104B0000F8CFFAF4BB0F11F460FF1BC06F5F7F4F4B
:104B10008F4F9F4F16C0882311F096E911C077235D
:104B200021F09EE8872F762F05C0662371F096E866
:104B3000862F70E060E02AF09A95660F771F881F35
:104B4000DAF7880F9695879597F90895990F0008D9
:104B5000550FAA0BE0E8FEEF16161706E807F9074F
:104B6000C0F012161306E407F50798F0621B730BEA
:104B7000840B950B39F40A2661F0232B242B252B6B
:104B800021F408950A2609F4A140A6958FEF811D0E
:104B9000811D08950E94DD250C944E260E9440261A
:104BA00038F00E94472620F0952311F00C94372608
:104BB0000C943D2611240C9482260E945F2670F3EB
:104BC000959FC1F3950F50E0551F629FF001729FB2
:104BD000BB27F00DB11D639FAA27F00DB11DAA1FC1
:104BE000649F6627B00DA11D661F829F2227B00D0E
:104BF000A11D621F739FB00DA11D621F839FA00D99
:104C0000611D221F749F3327A00D611D231F849FE8
:104C1000600D211D822F762F6A2F11249F5750403F
:104C20009AF0F1F088234AF0EE0FFF1FBB1F661FBA
:104C3000771F881F91505040A9F79E3F510580F083
:104C40000C9437260C9482265F3FE4F3983ED4F30D
:104C5000869577956795B795F795E7959F5FC1F727
:104C6000FE2B880F911D9695879597F9089597F9D2
:104C70009F6780E870E060E008959FEF80EC089502
:104C800000240A941616170618060906089500242B
:104C90000A9412161306140605060895092E0394A5
:104CA000000C11F4882352F0BB0F40F4BF2B11F419
:104CB00060FF04C06F5F7F4F8F4F9F4F089557FD78
:104CC0009058440F551F59F05F3F71F04795880F7A
:104CD00097FB991F61F09F3F79F087950895121611
:104CE00013061406551FF2CF4695F1DF08C01616BD
:104CF00017061806991FF1CF86957105610508946E
:104D00000895E894BB2766277727CB0197F9089584
:104D1000A1E21A2EAA1BBB1BFD010DC0AA1FBB1FBF
:104D2000EE1FFF1FA217B307E407F50720F0A21B31
:104D3000B30BE40BF50B661F771F881F991F1A949E
:104D400069F760957095809590959B01AC01BD01C8
:084D5000CF010895F894FFCF94
:104D5800DEADBEEFFEED00C05D185D18010000007D
:104D6800000000001F010D180000000085010D184B
:104D780000000000B41D0000000090170D18631714
:104D880041175517D717000000005E180D185E1858
:104D98005E185E185E1800000000DF13D016F511CB
:104DA800000000005E180D1800000000BE1800008A
:104DB80000005E18000000005E185E185E185E189D
:104DC8005E185E185E185E185E185E185E185E182B
:104DD80000000000E610A6124C1132110B11E5106C
:104DE8001A1355112E116012D011DD100811061179
:104DF800D210FC10000000005E185E185E185E18E5
:104E08005E185E185E185E185E185E185E185E18EA
:104E18005E185E185E185E1800000000AA13AF1432
:104E2800C0132D14F513301C6F155A151516E714F9
:104E3800CC1556140E14D813C813C413241D01001E
:104E48005E00000022225C5C6208660C6E0A720D2D
:104E58007409006E756C6C00747275650066616C1F
:104E68007365004E614E00496E66696E697479001B
:104E7800652D00566962726174696F6E00466C6FC9
:104E880077526174650043757272656E744C69710E
:104E9800756964466C6F77696E67004F75747075D5
:104EA800744C69717569645175616E7469747900BF
:104EB8003A205374617274206D6561737572656D03
:104EC800656E74002066696E69736865642E0043B8
:104ED8006F756E7465723A20003B2052504D3A202F
:104EE800003B2057696E642073706565643A200042
:104EF8006E616E00696E66006F766600205B6D2FCE
:104F0800735D00436F756E7465720052504D0057A3
:104F1800696E645370656564005265717565737474
:104F2800436F756E7400485454502F312E3120321F
:104F38003030204F4B00436F6E74656E742D54797A
:104F480070653A206170706C69636174696F6E2F67
:104F58006A736F6E00436F6E6E656374696F6E3A45
:104F680020636C6F7365004661696C656420746FBB
:104F780020726561642066726F6D20444854207306
:104F8800656E736F72210048756D69646974790084
:104F980043656C6369757354656D7065726174758A
:104FA80072650046616872656E6865697454656DFE
:104FB80070657261747572650043656C63697573B9
:104FC800486561740046616872656E686569744811
:104FD800656174004169725175616C697479416EDB
:104FE800616C6F67004169725175616C69747952BF
:104FF8005A65726F004169725175616C69747950B4
:10500800504D0050686F746F63656C6C000D0A003A
:00000001FF
