:100000000C9462000C948A000C948A000C948A0070
:100010000C948A000C948A000C948A000C948A0038
:100020000C948A000C948A000C948A000C948A0028
:100030000C948A000C948A000C948A000C948A0018
:100040000C942C080C948A000C94FA070C94D40796
:100050000C948A000C948A000C948A000C948A00F8
:100060000C948A000C948A000000000024002700F1
:100070002A0000000000250028002B0000000008D6
:10008000000201000003040700000000000000005F
:1000900000000000230026002900040404040404D6
:1000A0000404020202020202030303030303010227
:1000B00004081020408001020408102001020408F6
:1000C0001020760811241FBECFEFD8E0DEBFCDBFD1
:1000D00022E0A0E9B1E001C01D92A038B207E1F72B
:1000E00011E0A0E0B1E0E2E7FAE102C005900D9274
:1000F000A039B107D9F710E0C2E6D0E004C02197DB
:10010000FE010E94730AC136D107C9F70E940D098A
:100110000C94370D0C9400008F929F92AF92BF9277
:10012000CF92DF92EF92FF92CF93DF93A0916F0275
:10013000882311F03A2F01C030E08091700290E0E6
:10014000880F991F80579F4FC0907502D0907602FC
:10015000E0907702F090780240E050E0BA01FC01B4
:10016000C591D49128812A2332130FC04A015B0123
:100170002FEF821A920AA20AB20A4C155D056E058B
:100180007F0538F4B501A401EACF342F252FCB0128
:1001900004C030E020E080E090E0632F722FDF9118
:1001A000CF91FF90EF90DF90CF90BF90AF909F9056
:1001B0008F900895CF92DF92EF92FF920F931F934B
:1001C000CF93DF936C017A018B01C0E0D0E0CE15B4
:1001D000DF0589F0D8016D918D01D601ED91FC917B
:1001E0000190F081E02DC6010995892B11F47E0163
:1001F00002C02196ECCFC701DF91CF911F910F91E3
:10020000FF90EF90DF90CF900895FC01918D828D4B
:10021000981761F0828DDF01A80FB11D5D968C915A
:10022000928D9F5F9F73928F90E008958FEF9FEF65
:100230000895FC01918D828D981731F0828DE80F21
:10024000F11D858D90E008958FEF9FEF0895FC01DB
:10025000918D228D892F90E0805C9F4F821B9109A8
:100260008F73992708958FE991E00E94270121E07B
:10027000892B09F420E0822F0895FC01848DDF0191
:10028000A80FB11DA35ABF4F2C91848D90E0019609
:100290008F739927848FA689B7892C93A089B189F8
:1002A0008C9180648C93938D848D981306C0028802
:1002B000F389E02D80818F7D80830895EF92FF92F6
:1002C0000F931F93CF93DF93EC0181E0888F9B8D79
:1002D0008C8D981305C0E889F989808185FD24C03B
:1002E000F62E0B8D10E00F5F1F4F0F731127E02EBE
:1002F0008C8DE8120CC00FB607FCFACFE889F9899B
:10030000808185FFF5CFCE010E943D01F1CF8B8D1D
:10031000FE01E80FF11DE35AFF4FF0820B8FEA89CF
:10032000FB898081806207C0EE89FF896083E8894C
:10033000F98980818064808381E090E0DF91CF91B2
:100340001F910F91FF90EF900895CF93DF93EC01F1
:10035000888D8823C9F0EA89FB89808185FD05C0E5
:10036000A889B9898C9186FD0FC00FB607FCF5CF1F
:10037000808185FFF2CFA889B9898C9185FFEDCF67
:10038000CE010E943D01E7CFDF91CF91089580E03B
:1003900090E0892B29F00E94330181110C94000018
:1003A000089590E0FC01E458FF4F3491FC01E255C0
:1003B000FF4F2491FC01E656FF4FE491EE2309F430
:1003C0003BC0332339F1333091F038F43130A9F0A8
:1003D000323001F584B58F7D12C0373091F038305E
:1003E000A1F03430B9F4809180008F7D03C08091FA
:1003F00080008F77809380000DC084B58F7784BD97
:1004000009C08091B0008F7703C08091B0008F7DCC
:100410008093B000F0E0EE0FFF1FEE58FF4FA59164
:10042000B4918FB7F894EC91611103C020952E23FD
:1004300001C02E2B2C938FBF0895CF93DF9390E0B4
:10044000FC01E255FF4F2491FC01E656FF4F8491D9
:10045000882361F190E0880F991FFC01E859FF4F54
:10046000C591D491FC01EE58FF4FA591B491611153
:1004700009C09FB7F8948881209582238883EC91E6
:100480002E230BC0623061F49FB7F8943881822F1D
:10049000809583238883EC912E2B2C939FBF06C0DD
:1004A0008FB7F894E8812E2B28838FBFDF91CF91EF
:1004B00008953FB7F8948091910190919201A09195
:1004C0009301B091940126B5A89B05C02F3F19F068
:1004D0000196A11DB11D3FBFBA2FA92F982F8827C4
:1004E000820F911DA11DB11DBC01CD0142E0660F1F
:1004F000771F881F991F4A95D1F708958F929F9271
:10050000AF92BF92CF92DF92EF92FF926B017C018C
:100510000E9459024B015C01C114D104E104F104B1
:10052000F1F00E945902DC01CB0188199909AA094E
:10053000BB09883E9340A105B10570F321E0C21AC2
:10054000D108E108F10888EE880E83E0981EA11C0E
:10055000B11CC114D104E104F10419F7DDCFFF90FF
:10056000EF90DF90CF90BF90AF909F908F900895C5
:10057000CF92DF92EF92FF920F931F93CF93DF936F
:10058000CDB7DEB7C054D1400FB6F894DEBF0FBE72
:10059000CDBF2FB7F8948091950190919601A091CD
:1005A0009701B09198012FBF409171025091720252
:1005B00060917302709174028C019D01041B150BF4
:1005C000260B370BB901A801403D57406105710565
:1005D00018F480917902BCC08093710290937202EA
:1005E000A0937302B093740210926C0210926B028B
:1005F00010926A02109269021092680261E0809182
:100600006D020E94D1016AEF70E080E090E00E94EC
:100610007E0261E080916D020E941D0260E0809187
:100620006D020E94D10164E170E080E090E00E94E0
:100630007E02F89461E080916D020E94D1018BE905
:1006400090E00197F1F762E080916D020E941D0237
:1006500083E290E00197F1F780E00E948C00672B25
:10066000682B692B21F41092790278943EC081E0C6
:100670000E948C00672B682B692BA9F38E010F5FFA
:100680001F4F6E012FEBC21A2EEFD20A780180E0C5
:100690000E948C00F701608371838283938381E0E1
:1006A0000E948C00F7016483758386839783F8E04A
:1006B000EF0EF11CEC14FD0451F7789420E030E0CB
:1006C000F8014081518162817381C480D580E680C8
:1006D000F780411551056105710529F0C114D10458
:1006E000E104F10421F41092790280E031C0F901B3
:1006F00083E0F595E7958A95E1F7E859FD4F80810C
:10070000880F4C155D056E057F0508F481608083B8
:100710002F5F3F4F085F1F4F2832310589F6209128
:100720006C0230E0409168028091690290E0840F91
:10073000911D40916A02840F911D40916B02840FBC
:10074000911D99272817390771F681E08093790266
:10075000C05CDE4F0FB6F894DEBF0FBECDBFDF9199
:10076000CF911F910F91FF90EF90DF90CF90089560
:10077000CF92DF92EF92FF92CF93DF93C82F0E9428
:10078000B802882309F448C090916E029B3031F082
:1007900008F442C09551923048F03EC060916A0220
:1007A00070E080E090E00E948C0B27C0D0916A023C
:1007B0006D2F6F7770E080E090E00E948E0B20E05C
:1007C00030E040E853E40E94430C6B017C0140910F
:1007D0006B02642F70E080E090E00E948E0B9B0122
:1007E000AC01C701B6010E947A0A2DEC3CEC4CEC3E
:1007F0005DE30E94430CD7FD9058CC2389F026E698
:1008000036E646EE5FE30E94430C20E030E040E035
:1008100052E40E947A0A04C060E070E080EC9FE736
:10082000DF91CF91FF90EF90DF90CF9008954F929E
:100830005F926F927F928F929F92AF92BF92CF9270
:10084000DF92EF92FF920F93CF93DF93CDB7DEB796
:1008500028970FB6F894DEBF0FBECDBF6B017C01A9
:1008600049015A0101110EC026E636E646EE5FE365
:100870000E94430C20E030E040E052E40E947A0AFB
:100880006B017C0120E030E044E752E4C701B6018F
:100890000E947A0A2B013C0120E030E048E852E453
:1008A000C701B6010E94790A2AE939E949E95FE3FB
:1008B0000E94430C9B01AC01C301B2010E947A0A61
:1008C0002B013C0122E133E840EC5DE3C501B401BA
:1008D0000E94430C9B01AC01C301B2010E947A0A41
:1008E00020E030E040E05FE30E94430C2B013C013C
:1008F00020E030E04EE952E40E943E0C18160CF065
:1009000079C1A7019601C701B6010E94430C2B01D2
:100910003C01A5019401C501B4010E94430C6D8303
:100920007E838F83988721E133E243E050E4C7015F
:10093000B6010E94430C29E134E849E252E40E94E6
:10094000790A69837A838B839C8326E13BE442E2C4
:1009500051E4C501B4010E94430C9B01AC016981C3
:100960007A818B819C810E947A0A69837A838B8346
:100970009C8328E436E246E65EEBC701B6010E949E
:10098000430CA50194010E94430C9B01AC016981B9
:100990007A818B819C810E947A0A69837A838B8316
:1009A0009C8320EE3FE040EE5BEBC301B2010E946E
:1009B000430C9B01AC0169817A818B819C810E94EF
:1009C0007A0A69837A838B839C8328EF37E840E631
:1009D0005DEB6D817E818F8198850E94430C9B0128
:1009E000AC0169817A818B819C810E947A0A69833A
:1009F0007A838B839C832CEA3DE041EA5AE3C3016E
:100A0000B2010E94430CA50194010E94430C9B017A
:100A1000AC0169817A818B819C810E947A0A698309
:100A20007A838B839C8328EC3FE84FE55AE3C70128
:100A3000B6010E94430C9B01AC016D817E818F81C8
:100A400098850E94430C9B01AC0169817A818B815E
:100A50009C810E947A0A69837A838B839C8321EF2D
:100A60003BE845E056EBC301B2010E94430C9B01F9
:100A7000AC016D817E818F8198850E94430C9B0122
:100A8000AC0169817A818B819C810E947A0A2B0159
:100A90003C0120E030E040E551E4C501B4010E9492
:100AA000E60A87FF5CC020E030E040EA52E4C7017C
:100AB000B6010E943E0C87FD52C020E030E040EEBF
:100AC00052E4C701B6010E94E60A18160CF4A6C04B
:100AD000A501940160E070E080E591E40E94790A4C
:100AE00020E030E040E85EE30E94430C4B015C01F3
:100AF00020E030E04EEB52E4C701B6010E94790AD3
:100B00006B017C0120E030E0A9010E943E0C181628
:100B10004CF4A701960160E070E088E891E40E943F
:100B2000790A08C020E030E048E851E4C701B60186
:100B30000E947A0A2EE33DEE40E75DE30E94430CFB
:100B40000E94B60C9B01AC01C501B4010E94430C8C
:100B50009B01AC01B201C3010E94790A49C020E0A7
:100B600030E04AEA52E4C501B4010E943E0C181676
:100B70000CF040C020E030E040EA52E4C701B6018A
:100B80000E943E0C87FD36C020E030E04EEA52E481
:100B9000C701B6010E94E60A181664F120E030E0B1
:100BA0004AEA52E4C501B4010E94790A2DEC3CECFA
:100BB0004CEC5DE30E94430C4B015C01A7019601E4
:100BC00060E070E08EEA92E40E94790A2DEC3CEC41
:100BD0004CE45EE30E94430C9B01AC01C501B401EF
:100BE0000E94430C9B01AC01B201C3010E947A0A2E
:100BF0002B013C0101110FC020E030E040E052E445
:100C0000B201C3010E94790A26E838E34EE05FE3AF
:100C10000E94430C0FC0B201C3010CC020E030E0C1
:100C20004AEA52E4C501B4010E943E0C18160CF4C5
:100C3000ABCFE0CF6B017C01C701B60128960FB6A0
:100C4000F894DEBF0FBECDBFDF91CF910F91FF9023
:100C5000EF90DF90CF90BF90AF909F908F907F905C
:100C60006F905F904F9008956115710579F0FB01C9
:100C700001900020E9F73197AF01461B570BDC01CB
:100C8000ED91FC910280F381E02D099480E090E0E9
:100C90000895CF93DF93BC018FE991E00E94340661
:100CA000EC016AE171E08FE991E00E9434068C0F5B
:100CB0009D1FDF91CF9108954F925F926F927F9227
:100CC000EF92FF920F931F93CF93DF93CDB7DEB7D1
:100CD000A1970FB6F894DEBF0FBECDBF7C01FA011D
:100CE000CB0119A2223008F42AE08E010F5D1F4FBC
:100CF000422E512C612C712CBF01A30192010E9444
:100D0000150DF901CA01015011096A3014F4605D32
:100D100001C0695CD8016C93232B242B252B61F730
:100D2000B801C7010E943406A1960FB6F894DEBF41
:100D30000FBECDBFDF91CF911F910F91FF90EF902C
:100D40007F906F905F904F9008954F925F926F9257
:100D50007F928F929F92AF92BF92CF92DF92EF924B
:100D6000FF926B017C01B42E9B01AC010E94F60C3A
:100D7000882319F06DE171E027C026013701E8945E
:100D800077F82FEF3FEF4FE75FE7C301B2010E9413
:100D9000F60C81110DC02FEF3FEF4FE75FE7C30166
:100DA000B2010E94E60A18161CF461E271E00CC060
:100DB0002FEF3FEF4FE75FE4C701B6010E943E0C03
:100DC000181694F465E271E08FE991E0FF90EF90DE
:100DD000DF90CF90BF90AF909F908F907F906F905B
:100DE0005F904F900C9434062FEF3FEF4FE75FEC8E
:100DF000C701B6010E94E60A87FDE4CF20E030E09B
:100E0000A901C701B6010E94E60A87FF11C0E0915F
:100E10009F01F091A0010190F081E02D6DE28FE93A
:100E200091E009954C01F7FAF094F7F8F09402C0BC
:100E3000812C912CA12C60E070E080E09FE3AB144A
:100E400041F020E030E040E251E40E94EB0AA3943C
:100E5000F6CFA70196010E947A0A2B013C010E945D
:100E60005D0B6B017C010E948C0B9B01AC01C301EB
:100E7000B2010E94790A2B013C012AE0B701A601C8
:100E80008FE991E00E945C067C01E80CF91CBB2014
:100E900041F069E271E08FE991E00E943406E80ECA
:100EA000F91EDB2CDD2031F120E030E040E251E49E
:100EB000C301B2010E94430C2B013C010E945D0B57
:100EC0004B01A12CB12C2AE0B501A4018FE991E0DE
:100ED0000E945C06E80EF91EC501B4010E948C0B4D
:100EE0009B01AC01C301B2010E94790A2B013C01B4
:100EF000DA94D8CFC701FF90EF90DF90CF90BF90EA
:100F0000AF909F908F907F906F905F904F900895DB
:100F10008F929F92AF92BF92CF92DF92EF92FF9209
:100F20000F931F93CF93DF937C01EB016C0182E061
:100F3000C80ED11C4701E5E08E0E911C00E010E0C8
:100F4000F60141916F0150E060E070E02AE0CE01CF
:100F50000E945C065C01E881F9810190F081E02D3E
:100F60006EE2CE0109958A0D9B1D080F191FC8144A
:100F7000D90431F7F701458150E060E070E02AE0E4
:100F8000CE010E945C06800F911FDF91CF911F91CF
:100F90000F91FF90EF90DF90CF90BF90AF909F9018
:100FA0008F9008950E94100D1F920F920FB60F920E
:100FB00011242F933F934F935F936F937F938F935E
:100FC0009F93AF93BF93EF93FF938FE991E00E94BC
:100FD0003D01FF91EF91BF91AF919F918F917F91D3
:100FE0006F915F914F913F912F910F900FBE0F9096
:100FF0001F9018951F920F920FB60F9211242F93E6
:101000008F939F93EF93FF93E091AF01F091B00125
:101010008081E091B501F091B60182FD12C090810E
:101020008091B8018F5F8F732091B901821751F0C1
:10103000E091B801F0E0E156FE4F958F8093B80142
:1010400001C08081FF91EF919F918F912F910F901F
:101050000FBE0F901F9018951F920F920FB60F9210
:1010600011242F933F938F939F93AF93BF938091BE
:10107000950190919601A0919701B09198013091BE
:10108000900123E0230F2D3720F40196A11DB11DFF
:1010900005C026E8230F0296A11DB11D20939001E3
:1010A0008093950190939601A0939701B093980136
:1010B0008091910190919201A0919301B09194013E
:1010C0000196A11DB11D8093910190939201A0936F
:1010D0009301B0939401BF91AF919F918F913F91F4
:1010E0002F910F900FBE0F901F901895E9E9F1E036
:1010F00088E191E0918380831282138214821582A9
:10110000EFE9F1E01382128248EE53E060E070E014
:10111000448355836683778328E031E031832083DD
:1011200025EC30E03587248724EC30E037872687AC
:1011300020EC30E0318B208B21EC30E0338B228BA4
:1011400022EC30E0358B248B26EC30E0378B268B7D
:10115000118E128E138E148EECE3F2E09183808355
:101160001282138214821582E2E4F2E0918380837A
:101170001282138214821582E8E4F2E09183808364
:101180001282138214821582E6E5F2E09183808355
:101190001282138214821582EEE4F2E0918380833E
:1011A0001282138214821582ECE5F2E0918380832F
:1011B0001282138214821582E2E6F2E09183808328
:1011C0001282138214821582EAE7F2E0918380830F
:1011D0001282138214821582A8E6B2E082E015968C
:1011E0008C93159786E116968C931697E0EBF0E0BA
:1011F000E4911796EC931797ECE9F0E0E4911896D8
:10120000EC93189740E85EE360E070E01D964D9324
:101210005D936D937C9350970895CF93DF93CDB7F3
:10122000DEB728970FB6F894DEBF0FBECDBF789417
:1012300084B5826084BD84B5816084BD85B58260DB
:1012400085BD85B5816085BD80916E00816080938C
:101250006E001092810080918100826080938100F5
:101260008091810081608093810080918000816005
:10127000809380008091B10084608093B100809160
:10128000B00081608093B00080917A008460809388
:101290007A0080917A00826080937A0080917A004F
:1012A000816080937A0080917A00806880937A00D0
:1012B0001092C100E091AF01F091B00182E0808313
:1012C000E091AB01F091AC011082E091AD01F091A1
:1012D000AE018FEC80831092B701E091B301F091E1
:1012E000B40186E08083E091B101F091B201808188
:1012F00080618083E091B101F091B20180818860CA
:101300008083E091B101F091B20180818068808397
:10131000E091B101F091B20180818F7D80838BE2F9
:1013200091E00E94490662E080916D020E941D02D8
:1013300080E398EFAFEFBFEF80937102909372025A
:10134000A0937302B093740260ED77E080E090E0C8
:101350000E947E020E94B8028823B1F180916E0241
:101360008B3041F188F18551823070F560916802CF
:1013700070E080E090E00E948C0B20E030E040E8DC
:1013800053E40E94430C6B017C0180916902682F39
:1013900070E080E090E00E948E0B9B01AC01C701E1
:1013A000B6010E947A0A2DEC3CEC4CEC5DE30E9405
:1013B000430C07C06091680270E080E090E00E94FA
:1013C0008C0B6B017C0106C0C12CD12C80ECE82E6B
:1013D0008FE7F82E80E00E94B8032B013C0181E0EA
:1013E0000E94B8034B015C01A7019601C701B60139
:1013F0000E94F60C811170C0A3019201C301B201D9
:101400000E94F60C811168C0A5019401C501B401C8
:101410000E94F60C811160C001E0A7019601C50190
:10142000B4010E94170469837A838B839C8300E054
:10143000A7019601C301B2010E9417046D837E8348
:101440008F83988767E371E08FE991E00E9434060B
:1014500042E0C701B6010E94A50662E471E08FE98F
:1014600091E00E94340666E471E08FE991E00E9409
:10147000340642E0C301B2010E94A50664E571E0B2
:101480008FE991E00E94340642E0C501B4010E9458
:10149000A50669E571E08FE991E00E9434066EE5EA
:1014A00071E08FE991E00E94340642E06D817E8117
:1014B0008F8198850E94A50664E571E08FE991E02F
:1014C0000E94340642E069817A818B819C810E946E
:1014D000A5068BE691E002C08FE691E00E944906E6
:1014E0000E94C70131CFEE0FFF1F0590F491E02D50
:1014F00009945058BB27AA270E94910A0C94040C07
:101500000E94F60B38F00E94FD0B20F039F49F3F4B
:1015100019F426F40C94F30B0EF4E095E7FB0C940D
:10152000ED0BE92F0E94150C58F3BA1762077307E9
:101530008407950720F079F4A6F50C94370C0EF487
:10154000E0950B2EBA2FA02D0B01B90190010C01D3
:10155000CA01A0011124FF27591B99F0593F50F4EB
:10156000503E68F11A16F040A22F232F342F442743
:10157000585FF3CF469537952795A795F04053953B
:10158000C9F77EF41F16BA0B620B730B840BBAF00B
:101590009150A1F0FF0FBB1F661F771F881FC2F776
:1015A0000EC0BA0F621F731F841F48F4879577958A
:1015B0006795B795F7959E3F08F0B0CF9395880F44
:1015C00008F09927EE0F9795879508950E94C90B0B
:1015D00008F481E008950E94FF0A0C94040C0E9414
:1015E000FD0B58F00E94F60B40F029F45F3F29F004
:1015F0000C94ED0B51110C94380C0C94F30B0E94CD
:10160000150C68F39923B1F3552391F3951B550BF2
:10161000BB27AA2762177307840738F09F5F5F4FC5
:10162000220F331F441FAA1FA9F335D00E2E3AF004
:10163000E0E832D091505040E695001CCAF72BD01C
:10164000FE2F29D0660F771F881FBB1F261737076D
:101650004807AB07B0E809F0BB0B802DBF01FF279F
:1016600093585F4F3AF09E3F510578F00C94ED0B84
:101670000C94380C5F3FE4F3983ED4F3869577954D
:101680006795B795F7959F5FC9F7880F911D969558
:10169000879597F90895E1E0660F771F881FBB1FB4
:1016A000621773078407BA0720F0621B730B840B61
:1016B000BA0BEE1F88F7E09508950E941D0C88F084
:1016C0009F5798F0B92F9927B751B0F0E1F0660F06
:1016D000771F881F991F1AF0BA95C9F714C0B13047
:1016E00091F00E94370CB1E008950C94370C672FED
:1016F000782F8827B85F39F0B93FCCF38695779576
:101700006795B395D9F73EF490958095709561955E
:101710007F4F8F4F9F4F0895E89409C097FB3EF489
:1017200090958095709561957F4F8F4F9F4F99232E
:10173000A9F0F92F96E9BB279395F69587957795AC
:101740006795B795F111F8CFFAF4BB0F11F460FF6C
:101750001BC06F5F7F4F8F4F9F4F16C0882311F0C4
:1017600096E911C0772321F09EE8872F762F05C0D8
:10177000662371F096E8862F70E060E02AF09A9573
:10178000660F771F881FDAF7880F9695879597F968
:101790000895990F0008550FAA0BE0E8FEEF161602
:1017A0001706E807F907C0F012161306E407F50755
:1017B00098F0621B730B840B950B39F40A2661F0C9
:1017C000232B242B252B21F408950A2609F4A1406C
:1017D000A6958FEF811D811D089597F99F6780E879
:1017E00070E060E008959FEF80EC089500240A9473
:1017F0001616170618060906089500240A941216EC
:101800001306140605060895092E0394000C11F41E
:10181000882352F0BB0F40F4BF2B11F460FF04C0CB
:101820006F5F7F4F8F4F9F4F089557FD9058440F24
:10183000551F59F05F3F71F04795880F97FB991F2F
:1018400061F09F3F79F087950895121613061406EC
:10185000551FF2CF4695F1DF08C016161706180679
:10186000991FF1CF86957105610508940895E89454
:10187000BB2766277727CB0197F908950E94C90BEC
:1018800008F48FEF08950E94560C0C94040C0E94EB
:10189000F60B38F00E94FD0B20F0952311F00C940C
:1018A000ED0B0C94F30B11240C94380C0E94150CC6
:1018B00070F3959FC1F3950F50E0551F629FF001A3
:1018C000729FBB27F00DB11D639FAA27F00DB11DBC
:1018D000AA1F649F6627B00DA11D661F829F222745
:1018E000B00DA11D621F739FB00DA11D621F839FCC
:1018F000A00D611D221F749F3327A00D611D231FA2
:10190000849F600D211D822F762F6A2F11249F57EF
:1019100050409AF0F1F088234AF0EE0FFF1FBB1FF2
:10192000661F771F881F91505040A9F79E3F5105B1
:1019300080F00C94ED0B0C94380C5F3FE4F3983E70
:10194000D4F3869577956795B795F795E7959F5F5B
:10195000C1F7FE2B880F911D9695879597F90895ED
:1019600019F416F40C94F30B0C94FB0C0E941D0C50
:10197000B8F39923C9F3B6F39F57550B87FF0E941D
:10198000090D0024A0E640EA9001805856959795ED
:1019900028F4805C660F771F881F20F02617370712
:1019A000480730F4621B730B840B202931294A2B22
:1019B000A69517940794202531254A2758F7660FD6
:1019C000771F881F20F026173707480730F4620B6F
:1019D000730B840B200D311D411DA09581F7B901BA
:1019E000842F9158880F9695879508950E94C90B6A
:1019F000880B990B08959F3F31F0915020F4879503
:101A000077956795B795880F911D9695879597F966
:101A1000089591505040660F771F881FD2F70895A0
:101A200081E090E0F8940C94370DA1E21A2EAA1BE5
:101A3000BB1BFD010DC0AA1FBB1FEE1FFF1FA2177E
:101A4000B307E407F50720F0A21BB30BE40BF50B7B
:101A5000661F771F881F991F1A9469F76095709504
:101A6000809590959B01AC01BD01CF010895F8943C
:021A7000FFCFA6
:101A720001000000000000005E01DA0027010501FC
:101A82001901A5010000000088070D0A006E616EB1
:101A920000696E66006F7666002E004448547878BE
:101AA2002074657374210048756D69646974793AAC
:101AB20020002025090054656D706572617475728D
:101AC200653A2000202A432000202A460900486562
:101AD200617420696E6465783A2000202A460046C7
:101AE20061696C656420746F20726561642066723E
:101AF2006F6D204448542073656E736F722100002D
:00000001FF
